{
  "contractName": "Election",
  "abi": [
    {
      "inputs": [],
      "payable": false,
      "stateMutability": "nonpayable",
      "type": "constructor"
    },
    {
      "anonymous": false,
      "inputs": [],
      "name": "NetFundChangeEvent",
      "type": "event"
    },
    {
      "anonymous": false,
      "inputs": [
        {
          "indexed": false,
          "internalType": "uint256",
          "name": "proposalId",
          "type": "uint256"
        }
      ],
      "name": "ProposalRegisteredEvent",
      "type": "event"
    },
    {
      "anonymous": false,
      "inputs": [
        {
          "indexed": false,
          "internalType": "address",
          "name": "voterAddress",
          "type": "address"
        }
      ],
      "name": "VoterRegisteredEvent",
      "type": "event"
    },
    {
      "anonymous": false,
      "inputs": [],
      "name": "VotingSessionEndedEvent",
      "type": "event"
    },
    {
      "anonymous": false,
      "inputs": [],
      "name": "VotingSessionStartedEvent",
      "type": "event"
    },
    {
      "anonymous": false,
      "inputs": [
        {
          "indexed": false,
          "internalType": "enum Election.WorkflowStatus",
          "name": "previousStatus",
          "type": "uint8"
        },
        {
          "indexed": false,
          "internalType": "enum Election.WorkflowStatus",
          "name": "newStatus",
          "type": "uint8"
        }
      ],
      "name": "WorkflowStatusChangeEvent",
      "type": "event"
    },
    {
      "anonymous": false,
      "inputs": [
        {
          "indexed": true,
          "internalType": "uint256",
          "name": "_candidateId",
          "type": "uint256"
        }
      ],
      "name": "votedEvent",
      "type": "event"
    },
    {
      "constant": true,
      "inputs": [],
      "name": "administrator",
      "outputs": [
        {
          "internalType": "address",
          "name": "",
          "type": "address"
        }
      ],
      "payable": false,
      "stateMutability": "view",
      "type": "function"
    },
    {
      "constant": true,
      "inputs": [
        {
          "internalType": "uint256",
          "name": "",
          "type": "uint256"
        }
      ],
      "name": "candidates",
      "outputs": [
        {
          "internalType": "uint256",
          "name": "id",
          "type": "uint256"
        },
        {
          "internalType": "string",
          "name": "name",
          "type": "string"
        },
        {
          "internalType": "uint256",
          "name": "cost",
          "type": "uint256"
        },
        {
          "internalType": "uint256",
          "name": "voteCount",
          "type": "uint256"
        }
      ],
      "payable": false,
      "stateMutability": "view",
      "type": "function"
    },
    {
      "constant": true,
      "inputs": [],
      "name": "candidatesCount",
      "outputs": [
        {
          "internalType": "uint256",
          "name": "",
          "type": "uint256"
        }
      ],
      "payable": false,
      "stateMutability": "view",
      "type": "function"
    },
    {
      "constant": true,
      "inputs": [],
      "name": "fund",
      "outputs": [
        {
          "internalType": "uint256",
          "name": "crowdfundedInitialFund",
          "type": "uint256"
        },
        {
          "internalType": "uint256",
          "name": "crowdfundedUsedFund",
          "type": "uint256"
        }
      ],
      "payable": false,
      "stateMutability": "view",
      "type": "function"
    },
    {
      "constant": true,
      "inputs": [
        {
          "internalType": "address",
          "name": "",
          "type": "address"
        }
      ],
      "name": "voters",
      "outputs": [
        {
          "internalType": "bool",
          "name": "isRegistered",
          "type": "bool"
        },
        {
          "internalType": "bool",
          "name": "hasVoted",
          "type": "bool"
        },
        {
          "internalType": "uint256",
          "name": "votedProposalId",
          "type": "uint256"
        },
        {
          "internalType": "uint256",
          "name": "votingPower",
          "type": "uint256"
        }
      ],
      "payable": false,
      "stateMutability": "view",
      "type": "function"
    },
    {
      "constant": true,
      "inputs": [],
      "name": "workflowStatus",
      "outputs": [
        {
          "internalType": "enum Election.WorkflowStatus",
          "name": "",
          "type": "uint8"
        }
      ],
      "payable": false,
      "stateMutability": "view",
      "type": "function"
    },
    {
      "constant": true,
      "inputs": [],
      "name": "getProposalsNumber",
      "outputs": [
        {
          "internalType": "uint256",
          "name": "",
          "type": "uint256"
        }
      ],
      "payable": false,
      "stateMutability": "view",
      "type": "function"
    },
    {
      "constant": true,
      "inputs": [
        {
          "internalType": "uint256",
          "name": "index",
          "type": "uint256"
        }
      ],
      "name": "getProposalDescription",
      "outputs": [
        {
          "internalType": "string",
          "name": "",
          "type": "string"
        }
      ],
      "payable": false,
      "stateMutability": "view",
      "type": "function"
    },
    {
      "constant": true,
      "inputs": [
        {
          "internalType": "uint256",
          "name": "index",
          "type": "uint256"
        }
      ],
      "name": "getProposalCost",
      "outputs": [
        {
          "internalType": "uint256",
          "name": "",
          "type": "uint256"
        }
      ],
      "payable": false,
      "stateMutability": "view",
      "type": "function"
    },
    {
      "constant": true,
      "inputs": [],
      "name": "getWinningProposalId",
      "outputs": [
        {
          "internalType": "uint256",
          "name": "",
          "type": "uint256"
        }
      ],
      "payable": false,
      "stateMutability": "view",
      "type": "function"
    },
    {
      "constant": true,
      "inputs": [],
      "name": "getWinningProposalDescription",
      "outputs": [
        {
          "internalType": "string",
          "name": "",
          "type": "string"
        }
      ],
      "payable": false,
      "stateMutability": "view",
      "type": "function"
    },
    {
      "constant": true,
      "inputs": [],
      "name": "getWinningProposalCost",
      "outputs": [
        {
          "internalType": "uint256",
          "name": "",
          "type": "uint256"
        }
      ],
      "payable": false,
      "stateMutability": "view",
      "type": "function"
    },
    {
      "constant": true,
      "inputs": [],
      "name": "getWinningProposalVoteCounts",
      "outputs": [
        {
          "internalType": "uint256",
          "name": "",
          "type": "uint256"
        }
      ],
      "payable": false,
      "stateMutability": "view",
      "type": "function"
    },
    {
      "constant": true,
      "inputs": [
        {
          "internalType": "address",
          "name": "_voterAddress",
          "type": "address"
        }
      ],
      "name": "isRegisteredVoter",
      "outputs": [
        {
          "internalType": "bool",
          "name": "",
          "type": "bool"
        }
      ],
      "payable": false,
      "stateMutability": "view",
      "type": "function"
    },
    {
      "constant": true,
      "inputs": [
        {
          "internalType": "address",
          "name": "_voterAddress",
          "type": "address"
        }
      ],
      "name": "getVotingPower",
      "outputs": [
        {
          "internalType": "uint256",
          "name": "",
          "type": "uint256"
        }
      ],
      "payable": false,
      "stateMutability": "view",
      "type": "function"
    },
    {
      "constant": true,
      "inputs": [
        {
          "internalType": "address",
          "name": "_address",
          "type": "address"
        }
      ],
      "name": "isAdministrator",
      "outputs": [
        {
          "internalType": "bool",
          "name": "",
          "type": "bool"
        }
      ],
      "payable": false,
      "stateMutability": "view",
      "type": "function"
    },
    {
      "constant": true,
      "inputs": [],
      "name": "getWorkflowStatus",
      "outputs": [
        {
          "internalType": "enum Election.WorkflowStatus",
          "name": "",
          "type": "uint8"
        }
      ],
      "payable": false,
      "stateMutability": "view",
      "type": "function"
    },
    {
      "constant": true,
      "inputs": [],
      "name": "getCrowdfundedInitialFund",
      "outputs": [
        {
          "internalType": "uint256",
          "name": "",
          "type": "uint256"
        }
      ],
      "payable": false,
      "stateMutability": "view",
      "type": "function"
    },
    {
      "constant": true,
      "inputs": [],
      "name": "getCrowdfundedUsedFund",
      "outputs": [
        {
          "internalType": "uint256",
          "name": "",
          "type": "uint256"
        }
      ],
      "payable": false,
      "stateMutability": "view",
      "type": "function"
    },
    {
      "constant": false,
      "inputs": [
        {
          "internalType": "address",
          "name": "_voterAddress",
          "type": "address"
        },
        {
          "internalType": "uint256",
          "name": "_voterPower",
          "type": "uint256"
        }
      ],
      "name": "registerVoter",
      "outputs": [],
      "payable": false,
      "stateMutability": "nonpayable",
      "type": "function"
    },
    {
      "constant": false,
      "inputs": [
        {
          "internalType": "string",
          "name": "_name",
          "type": "string"
        },
        {
          "internalType": "uint256",
          "name": "_cost",
          "type": "uint256"
        }
      ],
      "name": "addCandidate",
      "outputs": [],
      "payable": false,
      "stateMutability": "nonpayable",
      "type": "function"
    },
    {
      "constant": false,
      "inputs": [],
      "name": "startVotingSession",
      "outputs": [],
      "payable": false,
      "stateMutability": "nonpayable",
      "type": "function"
    },
    {
      "constant": false,
      "inputs": [
        {
          "internalType": "uint256",
          "name": "_candidateId",
          "type": "uint256"
        }
      ],
      "name": "vote",
      "outputs": [],
      "payable": false,
      "stateMutability": "nonpayable",
      "type": "function"
    },
    {
      "constant": false,
      "inputs": [],
      "name": "tallyVotes",
      "outputs": [],
      "payable": false,
      "stateMutability": "nonpayable",
      "type": "function"
    }
  ],
  "bytecode": "0x608060405234801561001057600080fd5b50336000806101000a81548173ffffffffffffffffffffffffffffffffffffffff021916908373ffffffffffffffffffffffffffffffffffffffff16021790555060405180604001604052806103e8815260200160008152506001600082015181600001556020820151816001015590505060008060146101000a81548160ff021916908360028111156100a057fe5b0217905550611d16806100b46000396000f3fe608060405234801561001057600080fd5b50600436106101585760003560e01c8063a3ec138d116100c3578063da36cffe1161007c578063da36cffe14610639578063e23cec7b14610695578063e81e977b1461075a578063ee74c67814610778578063f53d0a8e14610782578063f75d64a6146107cc57610158565b8063a3ec138d14610499578063b02e84311461050e578063b60d428814610550578063bb4d443614610575578063cbea81ef146105cd578063d361a22f1461061b57610158565b80633477ee2e116101155780633477ee2e146102e8578063378a2178146103a457806337d05ddc146103ae57806341b1b0461461043157806357a30ded1461044f578063a1edffa21461046d57610158565b80630121b93f1461015d5780630a2eb3011461018b578063173d08d0146101e75780631af8690914610205578063229acb17146102235780632d35a8a2146102ca575b600080fd5b6101896004803603602081101561017357600080fd5b81019080803590602001909291905050506107f8565b005b6101cd600480360360208110156101a157600080fd5b81019080803573ffffffffffffffffffffffffffffffffffffffff169060200190929190505050610b31565b604051808215151515815260200191505060405180910390f35b6101ef610b8a565b6040518082815260200191505060405180910390f35b61020d610b97565b6040518082815260200191505060405180910390f35b61024f6004803603602081101561023957600080fd5b8101908080359060200190929190505050610c34565b6040518080602001828103825283818151815260200191508051906020019080838360005b8381101561028f578082015181840152602081019050610274565b50505050905090810190601f1680156102bc5780820380516001836020036101000a031916815260200191505b509250505060405180910390f35b6102d2610cec565b6040518082815260200191505060405180910390f35b610314600480360360208110156102fe57600080fd5b8101908080359060200190929190505050610cf2565b6040518085815260200180602001848152602001838152602001828103825285818151815260200191508051906020019080838360005b8381101561036657808201518184015260208101905061034b565b50505050905090810190601f1680156103935780820380516001836020036101000a031916815260200191505b509550505050505060405180910390f35b6103ac610dba565b005b6103b661105d565b6040518080602001828103825283818151815260200191508051906020019080838360005b838110156103f65780820151818401526020810190506103db565b50505050905090810190601f1680156104235780820380516001836020036101000a031916815260200191505b509250505060405180910390f35b610439611192565b6040518082815260200191505060405180910390f35b61045761119c565b6040518082815260200191505060405180910390f35b6104756111a8565b6040518082600281111561048557fe5b60ff16815260200191505060405180910390f35b6104db600480360360208110156104af57600080fd5b81019080803573ffffffffffffffffffffffffffffffffffffffff1690602001909291905050506111bb565b60405180851515151581526020018415151515815260200183815260200182815260200194505050505060405180910390f35b61053a6004803603602081101561052457600080fd5b8101908080359060200190929190505050611205565b6040518082815260200191505060405180910390f35b610558611225565b604051808381526020018281526020019250505060405180910390f35b6105b76004803603602081101561058b57600080fd5b81019080803573ffffffffffffffffffffffffffffffffffffffff169060200190929190505050611237565b6040518082815260200191505060405180910390f35b610619600480360360408110156105e357600080fd5b81019080803573ffffffffffffffffffffffffffffffffffffffff16906020019092919080359060200190929190505050611283565b005b610623611615565b6040518082815260200191505060405180910390f35b61067b6004803603602081101561064f57600080fd5b81019080803573ffffffffffffffffffffffffffffffffffffffff1690602001909291905050506116b2565b604051808215151515815260200191505060405180910390f35b610758600480360360408110156106ab57600080fd5b81019080803590602001906401000000008111156106c857600080fd5b8201836020820111156106da57600080fd5b803590602001918460018302840111640100000000831117156106fc57600080fd5b91908080601f016020809104026020016040519081016040528093929190818152602001838380828437600081840152601f19601f8201169050808301925050505050505091929192908035906020019092919050505061170b565b005b610762611876565b6040518082815260200191505060405180910390f35b6107806118fd565b005b61078a611adc565b604051808273ffffffffffffffffffffffffffffffffffffffff1673ffffffffffffffffffffffffffffffffffffffff16815260200191505060405180910390f35b6107d4611b01565b604051808260028111156107e457fe5b60ff16815260200191505060405180910390f35b600360003373ffffffffffffffffffffffffffffffffffffffff1673ffffffffffffffffffffffffffffffffffffffff16815260200190815260200160002060000160009054906101000a900460ff1661089d576040517f08c379a0000000000000000000000000000000000000000000000000000000008152600401808060200182810382526036815260200180611c766036913960400191505060405180910390fd5b600160028111156108aa57fe5b600060149054906101000a900460ff1660028111156108c557fe5b1461091b576040517f08c379a0000000000000000000000000000000000000000000000000000000008152600401808060200182810382526040815260200180611bbd6040913960400191505060405180910390fd5b600360003373ffffffffffffffffffffffffffffffffffffffff1673ffffffffffffffffffffffffffffffffffffffff16815260200190815260200160002060000160019054906101000a900460ff16156109de576040517f08c379a000000000000000000000000000000000000000000000000000000000815260040180806020018281038252601c8152602001807f7468652063616c6c65722068617320616c726561647920766f7465640000000081525060200191505060405180910390fd5b6000811180156109f057506005548111155b6109f957600080fd5b6001600360003373ffffffffffffffffffffffffffffffffffffffff1673ffffffffffffffffffffffffffffffffffffffff16815260200190815260200160002060000160016101000a81548160ff02191690831515021790555080600360003373ffffffffffffffffffffffffffffffffffffffff1673ffffffffffffffffffffffffffffffffffffffff16815260200190815260200160002060010181905550600360003373ffffffffffffffffffffffffffffffffffffffff1673ffffffffffffffffffffffffffffffffffffffff168152602001908152602001600020600201546004600083815260200190815260200160002060030160008282540192505081905550807ffff3c900d938d21d0990d786e819f29b8d05c1ef587b462b939609625b684b1660405160405180910390a250565b60008060009054906101000a900473ffffffffffffffffffffffffffffffffffffffff1673ffffffffffffffffffffffffffffffffffffffff168273ffffffffffffffffffffffffffffffffffffffff16149050919050565b6000600160000154905090565b6000600280811115610ba557fe5b600060149054906101000a900460ff166002811115610bc057fe5b14610c16576040517f08c379a000000000000000000000000000000000000000000000000000000000815260040180806020018281038252603e815260200180611bfd603e913960400191505060405180910390fd5b60046000600654815260200190815260200160002060030154905090565b6060600460008381526020019081526020016000206001018054600181600116156101000203166002900480601f016020809104026020016040519081016040528092919081815260200182805460018160011615610100020316600290048015610ce05780601f10610cb557610100808354040283529160200191610ce0565b820191906000526020600020905b815481529060010190602001808311610cc357829003601f168201915b50505050509050919050565b60055481565b6004602052806000526040600020600091509050806000015490806001018054600181600116156101000203166002900480601f016020809104026020016040519081016040528092919081815260200182805460018160011615610100020316600290048015610da45780601f10610d7957610100808354040283529160200191610da4565b820191906000526020600020905b815481529060010190602001808311610d8757829003601f168201915b5050505050908060020154908060030154905084565b6000809054906101000a900473ffffffffffffffffffffffffffffffffffffffff1673ffffffffffffffffffffffffffffffffffffffff163373ffffffffffffffffffffffffffffffffffffffff1614610e5f576040517f08c379a0000000000000000000000000000000000000000000000000000000008152600401808060200182810382526036815260200180611cac6036913960400191505060405180910390fd5b60016002811115610e6c57fe5b600060149054906101000a900460ff166002811115610e8757fe5b14610edd576040517f08c379a0000000000000000000000000000000000000000000000000000000008152600401808060200182810382526040815260200180611bbd6040913960400191505060405180910390fd5b6000809050600080905060008090505b600160055401811015610f42578260046000838152602001908152602001600020600301541115610f3557600460008281526020019081526020016000206003015492508091505b8080600101915050610eed565b50806006819055506002600060146101000a81548160ff02191690836002811115610f6957fe5b0217905550600460008281526020019081526020016000206002015460018001600082825401925050819055507f86a7e3ed2917a2b5f100160b6e558c8e7ae6e4fb8f2673d860d3f11b4f345e7260405160405180910390a17f9474022b1c97b70d3479aafe8672c447d1837ad99ae1f735eced168a65252d166001600060149054906101000a900460ff166040518083600281111561100557fe5b60ff16815260200182600281111561101957fe5b60ff1681526020019250505060405180910390a17fce05f5bc2de875677f885f088178f7d428d75a451499e2229898032c118a098d60405160405180910390a15050565b606060028081111561106b57fe5b600060149054906101000a900460ff16600281111561108657fe5b146110dc576040517f08c379a000000000000000000000000000000000000000000000000000000000815260040180806020018281038252603e815260200180611bfd603e913960400191505060405180910390fd5b6004600060065481526020019081526020016000206001018054600181600116156101000203166002900480601f0160208091040260200160405190810160405280929190818152602001828054600181600116156101000203166002900480156111885780601f1061115d57610100808354040283529160200191611188565b820191906000526020600020905b81548152906001019060200180831161116b57829003601f168201915b5050505050905090565b6000600554905090565b60006001800154905090565b600060149054906101000a900460ff1681565b60036020528060005260406000206000915090508060000160009054906101000a900460ff16908060000160019054906101000a900460ff16908060010154908060020154905084565b600060046000838152602001908152602001600020600201549050919050565b60018060000154908060010154905082565b6000600360008373ffffffffffffffffffffffffffffffffffffffff1673ffffffffffffffffffffffffffffffffffffffff168152602001908152602001600020600201549050919050565b6000809054906101000a900473ffffffffffffffffffffffffffffffffffffffff1673ffffffffffffffffffffffffffffffffffffffff163373ffffffffffffffffffffffffffffffffffffffff1614611328576040517f08c379a0000000000000000000000000000000000000000000000000000000008152600401808060200182810382526036815260200180611cac6036913960400191505060405180910390fd5b6000600281111561133557fe5b600060149054906101000a900460ff16600281111561135057fe5b146113a6576040517f08c379a000000000000000000000000000000000000000000000000000000000815260040180806020018281038252603b815260200180611c3b603b913960400191505060405180910390fd5b600360008373ffffffffffffffffffffffffffffffffffffffff1673ffffffffffffffffffffffffffffffffffffffff16815260200190815260200160002060000160009054906101000a900460ff1615611469576040517f08c379a00000000000000000000000000000000000000000000000000000000081526004018080602001828103825260208152602001807f74686520766f74657220697320616c726561647920726567697374657265642181525060200191505060405180910390fd5b6001600360008473ffffffffffffffffffffffffffffffffffffffff1673ffffffffffffffffffffffffffffffffffffffff16815260200190815260200160002060000160006101000a81548160ff0219169083151502179055506000600360008473ffffffffffffffffffffffffffffffffffffffff1673ffffffffffffffffffffffffffffffffffffffff16815260200190815260200160002060000160016101000a81548160ff0219169083151502179055506000600360008473ffffffffffffffffffffffffffffffffffffffff1673ffffffffffffffffffffffffffffffffffffffff1681526020019081526020016000206001018190555080600360008473ffffffffffffffffffffffffffffffffffffffff1673ffffffffffffffffffffffffffffffffffffffff168152602001908152602001600020600201819055507f42b360c89ba65a59ac7fec024a7bbb2c21d84b5abe5b5178ba0d7e34653a813082604051808273ffffffffffffffffffffffffffffffffffffffff1673ffffffffffffffffffffffffffffffffffffffff16815260200191505060405180910390a15050565b600060028081111561162357fe5b600060149054906101000a900460ff16600281111561163e57fe5b14611694576040517f08c379a000000000000000000000000000000000000000000000000000000000815260040180806020018281038252603e815260200180611bfd603e913960400191505060405180910390fd5b60046000600654815260200190815260200160002060020154905090565b6000600360008373ffffffffffffffffffffffffffffffffffffffff1673ffffffffffffffffffffffffffffffffffffffff16815260200190815260200160002060000160009054906101000a900460ff169050919050565b6000809054906101000a900473ffffffffffffffffffffffffffffffffffffffff1673ffffffffffffffffffffffffffffffffffffffff163373ffffffffffffffffffffffffffffffffffffffff16146117b0576040517f08c379a0000000000000000000000000000000000000000000000000000000008152600401808060200182810382526036815260200180611cac6036913960400191505060405180910390fd5b600560008154809291906001019190505550604051806080016040528060055481526020018381526020018281526020016000815250600460006005548152602001908152602001600020600082015181600001556020820151816001019080519060200190611821929190611b17565b5060408201518160020155606082015181600301559050507fdcd2e8cd237900037efa515c36a3caa6812766647c16535dd5fc3c6fd641154c6005546040518082815260200191505060405180910390a15050565b600060028081111561188457fe5b600060149054906101000a900460ff16600281111561189f57fe5b146118f5576040517f08c379a000000000000000000000000000000000000000000000000000000000815260040180806020018281038252603e815260200180611bfd603e913960400191505060405180910390fd5b600654905090565b6000809054906101000a900473ffffffffffffffffffffffffffffffffffffffff1673ffffffffffffffffffffffffffffffffffffffff163373ffffffffffffffffffffffffffffffffffffffff16146119a2576040517f08c379a0000000000000000000000000000000000000000000000000000000008152600401808060200182810382526036815260200180611cac6036913960400191505060405180910390fd5b600060028111156119af57fe5b600060149054906101000a900460ff1660028111156119ca57fe5b14611a20576040517f08c379a000000000000000000000000000000000000000000000000000000000815260040180806020018281038252603b815260200180611c3b603b913960400191505060405180910390fd5b6001600060146101000a81548160ff02191690836002811115611a3f57fe5b02179055507ffca8377aff3a08252b769c58e6769a534922eabaaf9952691ea9cfcaed41fbd860405160405180910390a17f9474022b1c97b70d3479aafe8672c447d1837ad99ae1f735eced168a65252d1660008060149054906101000a900460ff1660405180836002811115611ab257fe5b60ff168152602001826002811115611ac657fe5b60ff1681526020019250505060405180910390a1565b6000809054906101000a900473ffffffffffffffffffffffffffffffffffffffff1681565b60008060149054906101000a900460ff16905090565b828054600181600116156101000203166002900490600052602060002090601f016020900481019282601f10611b5857805160ff1916838001178555611b86565b82800160010185558215611b86579182015b82811115611b85578251825591602001919060010190611b6a565b5b509050611b939190611b97565b5090565b611bb991905b80821115611bb5576000816000905550600101611b9d565b5090565b9056fe546869732066756e6374696f6e2063616e2062652063616c6c6564206f6e6c79207768656e20766f74696e672073657373696f6e206861732073746172746564546869732066756e6374696f6e2063616e2062652063616c6c6564206f6e6c79207768656e20766f74696e672073657373696f6e2068617320656e646564546869732066756e6374696f6e2063616e2062652063616c6c6564206f6e6c7920647572696e6720766f7465727320726567697374726174696f6e5468652063616c6c6572206f6620746869732066756e6374696f6e206d7573742062652061207265676973746572656420766f7465725468652063616c6c6572206f6620746869732066756e6374696f6e206d757374206265207468652061646d696e6973747261746f7221a265627a7a72315820da19d709a696757d1c9d62ec35944f23cc2027d9cbfa5b5c992034912d74c59264736f6c63430005100032",
  "source": "pragma solidity 0.5.16;\n\ncontract Election {\n    // Model a candidate\n    struct Candidate {\n        uint id;\n        string name;\n        uint cost;\n        uint voteCount;\n    }\n\n    struct Voter {\n        bool isRegistered;\n        bool hasVoted;\n        uint votedProposalId;\n        uint votingPower;\n    }\n    \n    enum WorkflowStatus {\n        RegisteringVoters,\n        VotingSessionStarted,\n        VotingSessionEnded\n    }\n\n    struct Fund {\n        uint crowdfundedInitialFund;\n        uint crowdfundedUsedFund;\n    }\n\n    address public administrator;\n\n    WorkflowStatus public workflowStatus;\n\n    // Store Crowdfunded Fund\n    Fund public fund;\n    // uint public crowdfundedInitialFund;\n    // uint public crowdfundedUsedFund;\n\n    // Round counter\n    // uint private _round;\n    // mapping(uint => mapping(address => Voter)) private voters;\n    // mapping(uint => mapping(uint => Candidate)) private candidates;\n    // mapping(uint => uint) public candidatesCount;\n    // mapping(uint => uint) private winningCandidateId;\n    // _round += 1\n\n    // Store accounts that have voted\n    mapping(address => Voter) public voters;\n    // Store candidates\n    // Fetch candidate\n    mapping(uint => Candidate) public candidates;\n    // Store candidates count\n    uint public candidatesCount;\n    // Store winning candidate's ID\n    uint private winningCandidateId;\n\n    // voted event\n    event votedEvent (\n        uint indexed _candidateId\n    );\n\n    event VoterRegisteredEvent (address voterAddress);\n    event ProposalRegisteredEvent (\n        uint proposalId\n    );\n    event VotingSessionStartedEvent ();\n    event VotingSessionEndedEvent ();\n\n    event WorkflowStatusChangeEvent (\n        WorkflowStatus previousStatus,\n        WorkflowStatus newStatus\n    );\n\n    event NetFundChangeEvent ();\n\n    // ----------------- MODIFIERS -----------------\n    modifier onlyAdministrator() {\n        require(msg.sender == administrator, \"The caller of this function must be the administrator!\");\n        _;\n    }\n    modifier onlyRegisteredVoter() {\n        require(voters[msg.sender].isRegistered, \"The caller of this function must be a registered voter\");\n        _;\n    }\n    modifier onlyDuringVotersRegistration() {\n        require(workflowStatus == WorkflowStatus.RegisteringVoters, \"This function can be called only during voters registration\");\n        _;\n    }\n\n    modifier onlyDuringVotingSession() {\n        require(workflowStatus == WorkflowStatus.VotingSessionStarted, \"This function can be called only when voting session has started\");\n        _;\n    }\n    modifier onlyAfterVotingSession() {\n        require(workflowStatus == WorkflowStatus.VotingSessionEnded, \"This function can be called only when voting session has ended\");\n        _;\n    }\n    \n    // ----------------- VIEWS (HELPER FUNCTIONS) -----------------\n    function getProposalsNumber() public view returns (uint) {\n        return candidatesCount;\n    }\n\n    function getProposalDescription(uint index) public view returns (string memory) {\n        return candidates[index].name;\n    }\n\n    function getProposalCost(uint index) public view returns (uint) {\n        return candidates[index].cost;\n    }\n\n    function getWinningProposalId() \n        public onlyAfterVotingSession view returns (uint) {\n        return winningCandidateId;\n    }\n\n    function getWinningProposalDescription()\n        public onlyAfterVotingSession view returns (string memory) {\n        return candidates[winningCandidateId].name;    \n    }\n\n    function getWinningProposalCost() public onlyAfterVotingSession view returns (uint) {\n        return candidates[winningCandidateId].cost;\n    }\n\n    function getWinningProposalVoteCounts()\n        public onlyAfterVotingSession view returns (uint) {\n        return candidates[winningCandidateId].voteCount;\n    }\n\n    function isRegisteredVoter(address _voterAddress) public view returns (bool) {\n        return voters[_voterAddress].isRegistered;\n    }\n\n    function getVotingPower(address _voterAddress) public view returns (uint) {\n        return voters[_voterAddress].votingPower;\n    }\n\n    function isAdministrator(address _address) public view returns (bool) {\n        return (_address == administrator);\n    }\n\n    function getWorkflowStatus() public view returns (WorkflowStatus) {\n        return workflowStatus;\n    }\n\n    function getCrowdfundedInitialFund() public view returns (uint) {\n        return fund.crowdfundedInitialFund;\n    }\n\n    function getCrowdfundedUsedFund() public view returns (uint) {\n        return fund.crowdfundedUsedFund;\n    }\n\n    // function getFund() public view returns (Fund) {\n    //     return fund;\n    // }\n\n    // function getInitialFund() public view returns (uint) {\n    //     return crowdfundedInitialFund;\n    // }\n\n    // function getUsedFund() public view returns (uint) {\n    //     return crowdfundedUsedFund;\n    // }\n\n    // function getFundsInfo() public view returns()\n\n    // ----------------- Constructor -----------------\n    constructor() public {\n        administrator = msg.sender;\n        // crowdfundedInitialFund = 1000;\n        fund = Fund(1000,0);\n        workflowStatus = WorkflowStatus.RegisteringVoters;\n    }\n\n    function registerVoter(address _voterAddress, uint _voterPower) public onlyAdministrator onlyDuringVotersRegistration {\n        require(!voters[_voterAddress].isRegistered, \"the voter is already registered!\");\n\n        voters[_voterAddress].isRegistered = true;\n        voters[_voterAddress].hasVoted = false;\n        voters[_voterAddress].votedProposalId = 0;\n        voters[_voterAddress].votingPower = _voterPower;\n        \n        emit VoterRegisteredEvent(_voterAddress);\n    }\n\n    function addCandidate (string memory _name, uint _cost) public onlyAdministrator {\n        candidatesCount ++;\n        // candidates[candidatesCount] = Candidate(candidatesCount, _name, _cost, 0); \n        candidates[candidatesCount] = Candidate(candidatesCount, _name, _cost, 0); // initialize new Candidate struct \n        emit ProposalRegisteredEvent(candidatesCount);\n    }\n\n    function startVotingSession() public onlyAdministrator onlyDuringVotersRegistration {\n        workflowStatus = WorkflowStatus.VotingSessionStarted;\n        emit VotingSessionStartedEvent();\n        emit WorkflowStatusChangeEvent(WorkflowStatus.RegisteringVoters, workflowStatus);\n    } \n    \n    function vote(uint _candidateId) public onlyRegisteredVoter onlyDuringVotingSession {\n        require(!voters[msg.sender].hasVoted, \"the caller has already voted\"); // make sure voter's boolean for hasVoted is false\n\n        require(_candidateId > 0 && _candidateId <= candidatesCount);\n\n        voters[msg.sender].hasVoted = true;\n        voters[msg.sender].votedProposalId = _candidateId;\n\n        candidates[_candidateId].voteCount += voters[msg.sender].votingPower;\n\n        emit votedEvent(_candidateId);\n    }\n\n    function tallyVotes() public onlyAdministrator onlyDuringVotingSession {\n        uint winningVoteCount = 0;\n        uint winningProposalIndex = 0;\n        for (uint i = 0; i < candidatesCount + 1; i++) {\n            if (candidates[i].voteCount > winningVoteCount) {\n                winningVoteCount = candidates[i].voteCount;\n                winningProposalIndex = i;\n            }\n        }\n        winningCandidateId = winningProposalIndex;\n        workflowStatus = WorkflowStatus.VotingSessionEnded;\n\n        // crowdfundedUsedFund = crowdfundedUsedFund + candidates[winningProposalIndex].cost;\n\n        fund.crowdfundedUsedFund += candidates[winningProposalIndex].cost;\n\n        emit VotingSessionEndedEvent();\n        emit WorkflowStatusChangeEvent(WorkflowStatus.VotingSessionStarted, workflowStatus);\n        emit NetFundChangeEvent();\n    }\n\n    // function reset() public onlyAdministrator onlyAfterVotingSession {\n    //     voters = new mapping();\n    //     candidates = new mapping();\n    //     candidatesCount = 0;\n    //     winningCandidateId = 0;\n    // }\n}",
  "sourcePath": "/Users/nankamonporn/Desktop/voting-eco416/contracts/Election.sol",
  "compiler": {
    "name": "solc",
    "version": "0.5.16+commit.9c3226ce.Emscripten.clang"
  },
  "schemaVersion": "3.4.3",
  "updatedAt": "2021-11-26T01:57:08.110Z",
  "networkType": "ethereum",
  "devdoc": {
    "methods": {}
  },
  "userdoc": {
    "methods": {}
  }
}