{
  "contractName": "Election",
  "abi": [
    {
      "inputs": [],
      "payable": false,
      "stateMutability": "nonpayable",
      "type": "constructor"
    },
    {
      "anonymous": false,
      "inputs": [
        {
          "indexed": false,
          "internalType": "uint256",
          "name": "proposalId",
          "type": "uint256"
        }
      ],
      "name": "ProposalRegisteredEvent",
      "type": "event"
    },
    {
      "anonymous": false,
      "inputs": [
        {
          "indexed": false,
          "internalType": "address",
          "name": "voterAddress",
          "type": "address"
        }
      ],
      "name": "VoterRegisteredEvent",
      "type": "event"
    },
    {
      "anonymous": false,
      "inputs": [],
      "name": "VotingSessionEndedEvent",
      "type": "event"
    },
    {
      "anonymous": false,
      "inputs": [],
      "name": "VotingSessionStartedEvent",
      "type": "event"
    },
    {
      "anonymous": false,
      "inputs": [
        {
          "indexed": false,
          "internalType": "enum Election.WorkflowStatus",
          "name": "previousStatus",
          "type": "uint8"
        },
        {
          "indexed": false,
          "internalType": "enum Election.WorkflowStatus",
          "name": "newStatus",
          "type": "uint8"
        }
      ],
      "name": "WorkflowStatusChangeEvent",
      "type": "event"
    },
    {
      "anonymous": false,
      "inputs": [
        {
          "indexed": true,
          "internalType": "uint256",
          "name": "_candidateId",
          "type": "uint256"
        }
      ],
      "name": "votedEvent",
      "type": "event"
    },
    {
      "constant": true,
      "inputs": [],
      "name": "administrator",
      "outputs": [
        {
          "internalType": "address",
          "name": "",
          "type": "address"
        }
      ],
      "payable": false,
      "stateMutability": "view",
      "type": "function"
    },
    {
      "constant": true,
      "inputs": [
        {
          "internalType": "uint256",
          "name": "",
          "type": "uint256"
        }
      ],
      "name": "candidates",
      "outputs": [
        {
          "internalType": "uint256",
          "name": "id",
          "type": "uint256"
        },
        {
          "internalType": "string",
          "name": "name",
          "type": "string"
        },
        {
          "internalType": "uint256",
          "name": "voteCount",
          "type": "uint256"
        }
      ],
      "payable": false,
      "stateMutability": "view",
      "type": "function"
    },
    {
      "constant": true,
      "inputs": [],
      "name": "candidatesCount",
      "outputs": [
        {
          "internalType": "uint256",
          "name": "",
          "type": "uint256"
        }
      ],
      "payable": false,
      "stateMutability": "view",
      "type": "function"
    },
    {
      "constant": true,
      "inputs": [
        {
          "internalType": "address",
          "name": "",
          "type": "address"
        }
      ],
      "name": "voters",
      "outputs": [
        {
          "internalType": "bool",
          "name": "isRegistered",
          "type": "bool"
        },
        {
          "internalType": "bool",
          "name": "hasVoted",
          "type": "bool"
        },
        {
          "internalType": "uint256",
          "name": "votedProposalId",
          "type": "uint256"
        }
      ],
      "payable": false,
      "stateMutability": "view",
      "type": "function"
    },
    {
      "constant": true,
      "inputs": [],
      "name": "workflowStatus",
      "outputs": [
        {
          "internalType": "enum Election.WorkflowStatus",
          "name": "",
          "type": "uint8"
        }
      ],
      "payable": false,
      "stateMutability": "view",
      "type": "function"
    },
    {
      "constant": true,
      "inputs": [],
      "name": "getProposalsNumber",
      "outputs": [
        {
          "internalType": "uint256",
          "name": "",
          "type": "uint256"
        }
      ],
      "payable": false,
      "stateMutability": "view",
      "type": "function"
    },
    {
      "constant": true,
      "inputs": [
        {
          "internalType": "uint256",
          "name": "index",
          "type": "uint256"
        }
      ],
      "name": "getProposalDescription",
      "outputs": [
        {
          "internalType": "string",
          "name": "",
          "type": "string"
        }
      ],
      "payable": false,
      "stateMutability": "view",
      "type": "function"
    },
    {
      "constant": true,
      "inputs": [],
      "name": "getWinningProposalId",
      "outputs": [
        {
          "internalType": "uint256",
          "name": "",
          "type": "uint256"
        }
      ],
      "payable": false,
      "stateMutability": "view",
      "type": "function"
    },
    {
      "constant": true,
      "inputs": [],
      "name": "getWinningProposalDescription",
      "outputs": [
        {
          "internalType": "string",
          "name": "",
          "type": "string"
        }
      ],
      "payable": false,
      "stateMutability": "view",
      "type": "function"
    },
    {
      "constant": true,
      "inputs": [],
      "name": "getWinningProposalVoteCounts",
      "outputs": [
        {
          "internalType": "uint256",
          "name": "",
          "type": "uint256"
        }
      ],
      "payable": false,
      "stateMutability": "view",
      "type": "function"
    },
    {
      "constant": true,
      "inputs": [
        {
          "internalType": "address",
          "name": "_voterAddress",
          "type": "address"
        }
      ],
      "name": "isRegisteredVoter",
      "outputs": [
        {
          "internalType": "bool",
          "name": "",
          "type": "bool"
        }
      ],
      "payable": false,
      "stateMutability": "view",
      "type": "function"
    },
    {
      "constant": true,
      "inputs": [
        {
          "internalType": "address",
          "name": "_address",
          "type": "address"
        }
      ],
      "name": "isAdministrator",
      "outputs": [
        {
          "internalType": "bool",
          "name": "",
          "type": "bool"
        }
      ],
      "payable": false,
      "stateMutability": "view",
      "type": "function"
    },
    {
      "constant": true,
      "inputs": [],
      "name": "getWorkflowStatus",
      "outputs": [
        {
          "internalType": "enum Election.WorkflowStatus",
          "name": "",
          "type": "uint8"
        }
      ],
      "payable": false,
      "stateMutability": "view",
      "type": "function"
    },
    {
      "constant": false,
      "inputs": [
        {
          "internalType": "address",
          "name": "_voterAddress",
          "type": "address"
        }
      ],
      "name": "registerVoter",
      "outputs": [],
      "payable": false,
      "stateMutability": "nonpayable",
      "type": "function"
    },
    {
      "constant": false,
      "inputs": [
        {
          "internalType": "string",
          "name": "_name",
          "type": "string"
        }
      ],
      "name": "addCandidate",
      "outputs": [],
      "payable": false,
      "stateMutability": "nonpayable",
      "type": "function"
    },
    {
      "constant": false,
      "inputs": [],
      "name": "startVotingSession",
      "outputs": [],
      "payable": false,
      "stateMutability": "nonpayable",
      "type": "function"
    },
    {
      "constant": false,
      "inputs": [
        {
          "internalType": "uint256",
          "name": "_candidateId",
          "type": "uint256"
        }
      ],
      "name": "vote",
      "outputs": [],
      "payable": false,
      "stateMutability": "nonpayable",
      "type": "function"
    },
    {
      "constant": false,
      "inputs": [],
      "name": "tallyVotes",
      "outputs": [],
      "payable": false,
      "stateMutability": "nonpayable",
      "type": "function"
    }
  ],
  "bytecode": "0x608060405234801561001057600080fd5b50336000806101000a81548173ffffffffffffffffffffffffffffffffffffffff021916908373ffffffffffffffffffffffffffffffffffffffff16021790555060008060146101000a81548160ff0219169083600281111561006f57fe5b0217905550611967806100836000396000f3fe608060405234801561001057600080fd5b50600436106101165760003560e01c806341b1b046116100a2578063da36cffe11610071578063da36cffe14610581578063e81e977b146105dd578063ee74c678146105fb578063f53d0a8e14610605578063f75d64a61461064f57610116565b806341b1b0461461040e578063462e91ec1461042c578063a1edffa2146104e7578063a3ec138d1461051357610116565b80632d35a8a2116100e95780632d35a8a21461026a5780633477ee2e14610288578063378a21781461033d57806337d05ddc1461034757806338db6dd3146103ca57610116565b80630121b93f1461011b5780630a2eb301146101495780631af86909146101a5578063229acb17146101c3575b600080fd5b6101476004803603602081101561013157600080fd5b810190808035906020019092919050505061067b565b005b61018b6004803603602081101561015f57600080fd5b81019080803573ffffffffffffffffffffffffffffffffffffffff169060200190929190505050610973565b604051808215151515815260200191505060405180910390f35b6101ad6109cc565b6040518082815260200191505060405180910390f35b6101ef600480360360208110156101d957600080fd5b8101908080359060200190929190505050610a69565b6040518080602001828103825283818151815260200191508051906020019080838360005b8381101561022f578082015181840152602081019050610214565b50505050905090810190601f16801561025c5780820380516001836020036101000a031916815260200191505b509250505060405180910390f35b610272610b21565b6040518082815260200191505060405180910390f35b6102b46004803603602081101561029e57600080fd5b8101908080359060200190929190505050610b27565b6040518084815260200180602001838152602001828103825284818151815260200191508051906020019080838360005b838110156103005780820151818401526020810190506102e5565b50505050905090810190601f16801561032d5780820380516001836020036101000a031916815260200191505b5094505050505060405180910390f35b610345610be9565b005b61034f610e35565b6040518080602001828103825283818151815260200191508051906020019080838360005b8381101561038f578082015181840152602081019050610374565b50505050905090810190601f1680156103bc5780820380516001836020036101000a031916815260200191505b509250505060405180910390f35b61040c600480360360208110156103e057600080fd5b81019080803573ffffffffffffffffffffffffffffffffffffffff169060200190929190505050610f6a565b005b6104166112b3565b6040518082815260200191505060405180910390f35b6104e56004803603602081101561044257600080fd5b810190808035906020019064010000000081111561045f57600080fd5b82018360208201111561047157600080fd5b8035906020019184600183028401116401000000008311171561049357600080fd5b91908080601f016020809104026020016040519081016040528093929190818152602001838380828437600081840152601f19601f8201169050808301925050505050505091929192905050506112bd565b005b6104ef611417565b604051808260028111156104ff57fe5b60ff16815260200191505060405180910390f35b6105556004803603602081101561052957600080fd5b81019080803573ffffffffffffffffffffffffffffffffffffffff16906020019092919050505061142a565b604051808415151515815260200183151515158152602001828152602001935050505060405180910390f35b6105c36004803603602081101561059757600080fd5b81019080803573ffffffffffffffffffffffffffffffffffffffff16906020019092919050505061146e565b604051808215151515815260200191505060405180910390f35b6105e56114c7565b6040518082815260200191505060405180910390f35b61060361154e565b005b61060d61172d565b604051808273ffffffffffffffffffffffffffffffffffffffff1673ffffffffffffffffffffffffffffffffffffffff16815260200191505060405180910390f35b610657611752565b6040518082600281111561066757fe5b60ff16815260200191505060405180910390f35b600160003373ffffffffffffffffffffffffffffffffffffffff1673ffffffffffffffffffffffffffffffffffffffff16815260200190815260200160002060000160009054906101000a900460ff16610720576040517f08c379a00000000000000000000000000000000000000000000000000000000081526004018080602001828103825260368152602001806118c76036913960400191505060405180910390fd5b6001600281111561072d57fe5b600060149054906101000a900460ff16600281111561074857fe5b1461079e576040517f08c379a000000000000000000000000000000000000000000000000000000000815260040180806020018281038252604081526020018061180e6040913960400191505060405180910390fd5b600160003373ffffffffffffffffffffffffffffffffffffffff1673ffffffffffffffffffffffffffffffffffffffff16815260200190815260200160002060000160019054906101000a900460ff1615610861576040517f08c379a000000000000000000000000000000000000000000000000000000000815260040180806020018281038252601c8152602001807f7468652063616c6c65722068617320616c726561647920766f7465640000000081525060200191505060405180910390fd5b60008111801561087357506003548111155b61087c57600080fd5b60018060003373ffffffffffffffffffffffffffffffffffffffff1673ffffffffffffffffffffffffffffffffffffffff16815260200190815260200160002060000160016101000a81548160ff02191690831515021790555080600160003373ffffffffffffffffffffffffffffffffffffffff1673ffffffffffffffffffffffffffffffffffffffff168152602001908152602001600020600101819055506002600082815260200190815260200160002060020160008154809291906001019190505550807ffff3c900d938d21d0990d786e819f29b8d05c1ef587b462b939609625b684b1660405160405180910390a250565b60008060009054906101000a900473ffffffffffffffffffffffffffffffffffffffff1673ffffffffffffffffffffffffffffffffffffffff168273ffffffffffffffffffffffffffffffffffffffff16149050919050565b60006002808111156109da57fe5b600060149054906101000a900460ff1660028111156109f557fe5b14610a4b576040517f08c379a000000000000000000000000000000000000000000000000000000000815260040180806020018281038252603e81526020018061184e603e913960400191505060405180910390fd5b60026000600454815260200190815260200160002060020154905090565b6060600260008381526020019081526020016000206001018054600181600116156101000203166002900480601f016020809104026020016040519081016040528092919081815260200182805460018160011615610100020316600290048015610b155780601f10610aea57610100808354040283529160200191610b15565b820191906000526020600020905b815481529060010190602001808311610af857829003601f168201915b50505050509050919050565b60035481565b6002602052806000526040600020600091509050806000015490806001018054600181600116156101000203166002900480601f016020809104026020016040519081016040528092919081815260200182805460018160011615610100020316600290048015610bd95780601f10610bae57610100808354040283529160200191610bd9565b820191906000526020600020905b815481529060010190602001808311610bbc57829003601f168201915b5050505050908060020154905083565b6000809054906101000a900473ffffffffffffffffffffffffffffffffffffffff1673ffffffffffffffffffffffffffffffffffffffff163373ffffffffffffffffffffffffffffffffffffffff1614610c8e576040517f08c379a00000000000000000000000000000000000000000000000000000000081526004018080602001828103825260368152602001806118fd6036913960400191505060405180910390fd5b60016002811115610c9b57fe5b600060149054906101000a900460ff166002811115610cb657fe5b14610d0c576040517f08c379a000000000000000000000000000000000000000000000000000000000815260040180806020018281038252604081526020018061180e6040913960400191505060405180910390fd5b6000809050600080905060008090505b600354811015610d6e578260026000838152602001908152602001600020600201541115610d6157600260008281526020019081526020016000206002015492508091505b8080600101915050610d1c565b50806004819055506002600060146101000a81548160ff02191690836002811115610d9557fe5b02179055507f86a7e3ed2917a2b5f100160b6e558c8e7ae6e4fb8f2673d860d3f11b4f345e7260405160405180910390a17f9474022b1c97b70d3479aafe8672c447d1837ad99ae1f735eced168a65252d166001600060149054906101000a900460ff1660405180836002811115610e0957fe5b60ff168152602001826002811115610e1d57fe5b60ff1681526020019250505060405180910390a15050565b6060600280811115610e4357fe5b600060149054906101000a900460ff166002811115610e5e57fe5b14610eb4576040517f08c379a000000000000000000000000000000000000000000000000000000000815260040180806020018281038252603e81526020018061184e603e913960400191505060405180910390fd5b6002600060045481526020019081526020016000206001018054600181600116156101000203166002900480601f016020809104026020016040519081016040528092919081815260200182805460018160011615610100020316600290048015610f605780601f10610f3557610100808354040283529160200191610f60565b820191906000526020600020905b815481529060010190602001808311610f4357829003601f168201915b5050505050905090565b6000809054906101000a900473ffffffffffffffffffffffffffffffffffffffff1673ffffffffffffffffffffffffffffffffffffffff163373ffffffffffffffffffffffffffffffffffffffff161461100f576040517f08c379a00000000000000000000000000000000000000000000000000000000081526004018080602001828103825260368152602001806118fd6036913960400191505060405180910390fd5b6000600281111561101c57fe5b600060149054906101000a900460ff16600281111561103757fe5b1461108d576040517f08c379a000000000000000000000000000000000000000000000000000000000815260040180806020018281038252603b81526020018061188c603b913960400191505060405180910390fd5b600160008273ffffffffffffffffffffffffffffffffffffffff1673ffffffffffffffffffffffffffffffffffffffff16815260200190815260200160002060000160009054906101000a900460ff1615611150576040517f08c379a00000000000000000000000000000000000000000000000000000000081526004018080602001828103825260208152602001807f74686520766f74657220697320616c726561647920726567697374657265642181525060200191505060405180910390fd5b60018060008373ffffffffffffffffffffffffffffffffffffffff1673ffffffffffffffffffffffffffffffffffffffff16815260200190815260200160002060000160006101000a81548160ff0219169083151502179055506000600160008373ffffffffffffffffffffffffffffffffffffffff1673ffffffffffffffffffffffffffffffffffffffff16815260200190815260200160002060000160016101000a81548160ff0219169083151502179055506000600160008373ffffffffffffffffffffffffffffffffffffffff1673ffffffffffffffffffffffffffffffffffffffff168152602001908152602001600020600101819055507f42b360c89ba65a59ac7fec024a7bbb2c21d84b5abe5b5178ba0d7e34653a813081604051808273ffffffffffffffffffffffffffffffffffffffff1673ffffffffffffffffffffffffffffffffffffffff16815260200191505060405180910390a150565b6000600354905090565b6000809054906101000a900473ffffffffffffffffffffffffffffffffffffffff1673ffffffffffffffffffffffffffffffffffffffff163373ffffffffffffffffffffffffffffffffffffffff1614611362576040517f08c379a00000000000000000000000000000000000000000000000000000000081526004018080602001828103825260368152602001806118fd6036913960400191505060405180910390fd5b6003600081548092919060010191905055506040518060600160405280600354815260200182815260200160008152506002600060035481526020019081526020016000206000820151816000015560208201518160010190805190602001906113cd929190611768565b50604082015181600201559050507fdcd2e8cd237900037efa515c36a3caa6812766647c16535dd5fc3c6fd641154c6003546040518082815260200191505060405180910390a150565b600060149054906101000a900460ff1681565b60016020528060005260406000206000915090508060000160009054906101000a900460ff16908060000160019054906101000a900460ff16908060010154905083565b6000600160008373ffffffffffffffffffffffffffffffffffffffff1673ffffffffffffffffffffffffffffffffffffffff16815260200190815260200160002060000160009054906101000a900460ff169050919050565b60006002808111156114d557fe5b600060149054906101000a900460ff1660028111156114f057fe5b14611546576040517f08c379a000000000000000000000000000000000000000000000000000000000815260040180806020018281038252603e81526020018061184e603e913960400191505060405180910390fd5b600454905090565b6000809054906101000a900473ffffffffffffffffffffffffffffffffffffffff1673ffffffffffffffffffffffffffffffffffffffff163373ffffffffffffffffffffffffffffffffffffffff16146115f3576040517f08c379a00000000000000000000000000000000000000000000000000000000081526004018080602001828103825260368152602001806118fd6036913960400191505060405180910390fd5b6000600281111561160057fe5b600060149054906101000a900460ff16600281111561161b57fe5b14611671576040517f08c379a000000000000000000000000000000000000000000000000000000000815260040180806020018281038252603b81526020018061188c603b913960400191505060405180910390fd5b6001600060146101000a81548160ff0219169083600281111561169057fe5b02179055507ffca8377aff3a08252b769c58e6769a534922eabaaf9952691ea9cfcaed41fbd860405160405180910390a17f9474022b1c97b70d3479aafe8672c447d1837ad99ae1f735eced168a65252d1660008060149054906101000a900460ff166040518083600281111561170357fe5b60ff16815260200182600281111561171757fe5b60ff1681526020019250505060405180910390a1565b6000809054906101000a900473ffffffffffffffffffffffffffffffffffffffff1681565b60008060149054906101000a900460ff16905090565b828054600181600116156101000203166002900490600052602060002090601f016020900481019282601f106117a957805160ff19168380011785556117d7565b828001600101855582156117d7579182015b828111156117d65782518255916020019190600101906117bb565b5b5090506117e491906117e8565b5090565b61180a91905b808211156118065760008160009055506001016117ee565b5090565b9056fe546869732066756e6374696f6e2063616e2062652063616c6c6564206f6e6c79207768656e20766f74696e672073657373696f6e206861732073746172746564546869732066756e6374696f6e2063616e2062652063616c6c6564206f6e6c79207768656e20766f74696e672073657373696f6e2068617320656e646564546869732066756e6374696f6e2063616e2062652063616c6c6564206f6e6c7920647572696e6720766f7465727320726567697374726174696f6e5468652063616c6c6572206f6620746869732066756e6374696f6e206d7573742062652061207265676973746572656420766f7465725468652063616c6c6572206f6620746869732066756e6374696f6e206d757374206265207468652061646d696e6973747261746f7221a265627a7a723158209bca88f191be1f88d79d44b474198de5589d0514865523f816494d79f471cee664736f6c63430005100032",
  "source": "pragma solidity 0.5.16;\n\ncontract Election {\n    // Model a candidate\n    struct Candidate {\n        uint id;\n        string name;\n        uint voteCount;\n    }\n\n    struct Voter {\n        bool isRegistered;\n        bool hasVoted;\n        uint votedProposalId;\n    }\n    \n    enum WorkflowStatus {\n        RegisteringVoters,\n        VotingSessionStarted,\n        VotingSessionEnded\n    }\n\n    address public administrator;\n\n    WorkflowStatus public workflowStatus;\n\n    // Store accounts that have voted\n    mapping(address => Voter) public voters;\n    // Store candidates\n    // Fetch candidate\n    mapping(uint => Candidate) public candidates;\n    // Store candidates count\n    uint public candidatesCount;\n    // Store winning candidate's ID\n    uint private winningCandidateId;\n\n    // voted event\n    event votedEvent (\n        uint indexed _candidateId\n    );\n\n    event VoterRegisteredEvent (address voterAddress);\n    event ProposalRegisteredEvent (\n        uint proposalId\n    );\n    event VotingSessionStartedEvent ();\n    event VotingSessionEndedEvent ();\n\n    event WorkflowStatusChangeEvent (\n        WorkflowStatus previousStatus,\n        WorkflowStatus newStatus\n    );\n\n    // ----------------- MODIFIERS -----------------\n    modifier onlyAdministrator() {\n        require(msg.sender == administrator, \"The caller of this function must be the administrator!\");\n        _;\n    }\n    modifier onlyRegisteredVoter() {\n        require(voters[msg.sender].isRegistered, \"The caller of this function must be a registered voter\");\n        _;\n    }\n    modifier onlyDuringVotersRegistration() {\n        require(workflowStatus == WorkflowStatus.RegisteringVoters, \"This function can be called only during voters registration\");\n        _;\n    }\n\n    modifier onlyDuringVotingSession() {\n        require(workflowStatus == WorkflowStatus.VotingSessionStarted, \"This function can be called only when voting session has started\");\n        _;\n    }\n    modifier onlyAfterVotingSession() {\n        require(workflowStatus == WorkflowStatus.VotingSessionEnded, \"This function can be called only when voting session has ended\");\n        _;\n    }\n    \n    // ----------------- VIEWS (HELPER FUNCTIONS) -----------------\n    function getProposalsNumber() public view returns (uint) {\n        return candidatesCount;\n    }\n\n    function getProposalDescription(uint index) public view returns (string memory) {\n        return candidates[index].name;\n    }\n\n    function getWinningProposalId() \n        public onlyAfterVotingSession view returns (uint) {\n        return winningCandidateId;\n    }\n\n    function getWinningProposalDescription()\n        public onlyAfterVotingSession view returns (string memory) {\n        return candidates[winningCandidateId].name;    \n    }\n\n    function getWinningProposalVoteCounts()\n        public onlyAfterVotingSession view returns (uint) {\n        return candidates[winningCandidateId].voteCount;\n    }\n\n    function isRegisteredVoter(address _voterAddress) public view returns (bool) {\n        return voters[_voterAddress].isRegistered;\n    }\n\n    function isAdministrator(address _address) public view returns (bool) {\n        return (_address == administrator);\n    }\n\n    function getWorkflowStatus() public view returns (WorkflowStatus) {\n        return workflowStatus;\n    }\n\n    // ----------------- Constructor -----------------\n    constructor() public {\n        administrator = msg.sender;\n        workflowStatus = WorkflowStatus.RegisteringVoters;\n    }\n\n    function registerVoter(address _voterAddress) public onlyAdministrator onlyDuringVotersRegistration {\n        require(!voters[_voterAddress].isRegistered, \"the voter is already registered!\");\n\n        voters[_voterAddress].isRegistered = true;\n        voters[_voterAddress].hasVoted = false;\n        voters[_voterAddress].votedProposalId = 0;\n        \n        emit VoterRegisteredEvent(_voterAddress);\n    }\n\n    function addCandidate (string memory _name) \n        public onlyAdministrator {\n        candidatesCount ++;\n        candidates[candidatesCount] = Candidate(candidatesCount, _name, 0); // initialize new Candidate struct \n        emit ProposalRegisteredEvent(candidatesCount);\n    }\n\n    function startVotingSession()\n        public onlyAdministrator onlyDuringVotersRegistration {\n        workflowStatus = WorkflowStatus.VotingSessionStarted;\n        emit VotingSessionStartedEvent();\n        emit WorkflowStatusChangeEvent(WorkflowStatus.RegisteringVoters, workflowStatus);\n    } \n    \n    function vote(uint _candidateId) \n        public onlyRegisteredVoter onlyDuringVotingSession {\n        require(!voters[msg.sender].hasVoted, \"the caller has already voted\"); // make sure voter's boolean for hasVoted is false\n\n        require(_candidateId > 0 && _candidateId <= candidatesCount);\n\n        voters[msg.sender].hasVoted = true;\n        voters[msg.sender].votedProposalId = _candidateId;\n\n        candidates[_candidateId].voteCount ++;\n\n        emit votedEvent(_candidateId);\n    }\n\n    function tallyVotes()\n        public onlyAdministrator onlyDuringVotingSession {\n        uint winningVoteCount = 0;\n        uint winningProposalIndex = 0;\n        for (uint i = 0; i < candidatesCount; i++) {\n            if (candidates[i].voteCount > winningVoteCount) {\n                winningVoteCount = candidates[i].voteCount;\n                winningProposalIndex = i;\n            }\n        }\n        winningCandidateId = winningProposalIndex;\n        workflowStatus = WorkflowStatus.VotingSessionEnded;\n        emit VotingSessionEndedEvent();\n        emit WorkflowStatusChangeEvent(WorkflowStatus.VotingSessionStarted, workflowStatus);\n    }\n}",
  "sourcePath": "/Users/AB185512/Desktop/voting/contracts/Election.sol",
  "compiler": {
    "name": "solc",
    "version": "0.5.16+commit.9c3226ce.Emscripten.clang"
  },
  "schemaVersion": "3.4.3",
  "updatedAt": "2021-11-11T23:05:38.201Z",
  "networkType": "ethereum",
  "devdoc": {
    "methods": {}
  },
  "userdoc": {
    "methods": {}
  }
}