{
  "contractName": "Election",
  "abi": [
    {
      "inputs": [],
      "payable": false,
      "stateMutability": "nonpayable",
      "type": "constructor"
    },
    {
      "anonymous": false,
      "inputs": [],
      "name": "NetFundChangeEvent",
      "type": "event"
    },
    {
      "anonymous": false,
      "inputs": [
        {
          "indexed": false,
          "internalType": "uint256",
          "name": "proposalId",
          "type": "uint256"
        }
      ],
      "name": "ProposalRegisteredEvent",
      "type": "event"
    },
    {
      "anonymous": false,
      "inputs": [
        {
          "indexed": false,
          "internalType": "address",
          "name": "voterAddress",
          "type": "address"
        }
      ],
      "name": "VoterRegisteredEvent",
      "type": "event"
    },
    {
      "anonymous": false,
      "inputs": [],
      "name": "VotingSessionEndedEvent",
      "type": "event"
    },
    {
      "anonymous": false,
      "inputs": [],
      "name": "VotingSessionStartedEvent",
      "type": "event"
    },
    {
      "anonymous": false,
      "inputs": [
        {
          "indexed": false,
          "internalType": "enum Election.WorkflowStatus",
          "name": "previousStatus",
          "type": "uint8"
        },
        {
          "indexed": false,
          "internalType": "enum Election.WorkflowStatus",
          "name": "newStatus",
          "type": "uint8"
        }
      ],
      "name": "WorkflowStatusChangeEvent",
      "type": "event"
    },
    {
      "anonymous": false,
      "inputs": [
        {
          "indexed": true,
          "internalType": "uint256",
          "name": "_candidateId",
          "type": "uint256"
        }
      ],
      "name": "votedEvent",
      "type": "event"
    },
    {
      "constant": true,
      "inputs": [],
      "name": "administrator",
      "outputs": [
        {
          "internalType": "address",
          "name": "",
          "type": "address"
        }
      ],
      "payable": false,
      "stateMutability": "view",
      "type": "function"
    },
    {
      "constant": true,
      "inputs": [
        {
          "internalType": "uint256",
          "name": "",
          "type": "uint256"
        }
      ],
      "name": "candidates",
      "outputs": [
        {
          "internalType": "uint256",
          "name": "id",
          "type": "uint256"
        },
        {
          "internalType": "string",
          "name": "name",
          "type": "string"
        },
        {
          "internalType": "uint256",
          "name": "cost",
          "type": "uint256"
        },
        {
          "internalType": "uint256",
          "name": "voteCount",
          "type": "uint256"
        }
      ],
      "payable": false,
      "stateMutability": "view",
      "type": "function"
    },
    {
      "constant": true,
      "inputs": [],
      "name": "candidatesCount",
      "outputs": [
        {
          "internalType": "uint256",
          "name": "",
          "type": "uint256"
        }
      ],
      "payable": false,
      "stateMutability": "view",
      "type": "function"
    },
    {
      "constant": true,
      "inputs": [],
      "name": "fund",
      "outputs": [
        {
          "internalType": "uint256",
          "name": "crowdfundedInitialFund",
          "type": "uint256"
        },
        {
          "internalType": "uint256",
          "name": "crowdfundedUsedFund",
          "type": "uint256"
        }
      ],
      "payable": false,
      "stateMutability": "view",
      "type": "function"
    },
    {
      "constant": true,
      "inputs": [
        {
          "internalType": "address",
          "name": "",
          "type": "address"
        }
      ],
      "name": "voters",
      "outputs": [
        {
          "internalType": "bool",
          "name": "isRegistered",
          "type": "bool"
        },
        {
          "internalType": "bool",
          "name": "hasVoted",
          "type": "bool"
        },
        {
          "internalType": "uint256",
          "name": "votedProposalId",
          "type": "uint256"
        },
        {
          "internalType": "uint256",
          "name": "votingPower",
          "type": "uint256"
        }
      ],
      "payable": false,
      "stateMutability": "view",
      "type": "function"
    },
    {
      "constant": true,
      "inputs": [],
      "name": "workflowStatus",
      "outputs": [
        {
          "internalType": "enum Election.WorkflowStatus",
          "name": "",
          "type": "uint8"
        }
      ],
      "payable": false,
      "stateMutability": "view",
      "type": "function"
    },
    {
      "constant": true,
      "inputs": [],
      "name": "getProposalsNumber",
      "outputs": [
        {
          "internalType": "uint256",
          "name": "",
          "type": "uint256"
        }
      ],
      "payable": false,
      "stateMutability": "view",
      "type": "function"
    },
    {
      "constant": true,
      "inputs": [
        {
          "internalType": "uint256",
          "name": "index",
          "type": "uint256"
        }
      ],
      "name": "getProposalDescription",
      "outputs": [
        {
          "internalType": "string",
          "name": "",
          "type": "string"
        }
      ],
      "payable": false,
      "stateMutability": "view",
      "type": "function"
    },
    {
      "constant": true,
      "inputs": [
        {
          "internalType": "uint256",
          "name": "index",
          "type": "uint256"
        }
      ],
      "name": "getProposalCost",
      "outputs": [
        {
          "internalType": "uint256",
          "name": "",
          "type": "uint256"
        }
      ],
      "payable": false,
      "stateMutability": "view",
      "type": "function"
    },
    {
      "constant": true,
      "inputs": [],
      "name": "getWinningProposalId",
      "outputs": [
        {
          "internalType": "uint256",
          "name": "",
          "type": "uint256"
        }
      ],
      "payable": false,
      "stateMutability": "view",
      "type": "function"
    },
    {
      "constant": true,
      "inputs": [],
      "name": "getWinningProposalDescription",
      "outputs": [
        {
          "internalType": "string",
          "name": "",
          "type": "string"
        }
      ],
      "payable": false,
      "stateMutability": "view",
      "type": "function"
    },
    {
      "constant": true,
      "inputs": [],
      "name": "getWinningProposalCost",
      "outputs": [
        {
          "internalType": "uint256",
          "name": "",
          "type": "uint256"
        }
      ],
      "payable": false,
      "stateMutability": "view",
      "type": "function"
    },
    {
      "constant": true,
      "inputs": [],
      "name": "getWinningProposalVoteCounts",
      "outputs": [
        {
          "internalType": "uint256",
          "name": "",
          "type": "uint256"
        }
      ],
      "payable": false,
      "stateMutability": "view",
      "type": "function"
    },
    {
      "constant": true,
      "inputs": [
        {
          "internalType": "address",
          "name": "_voterAddress",
          "type": "address"
        }
      ],
      "name": "isRegisteredVoter",
      "outputs": [
        {
          "internalType": "bool",
          "name": "",
          "type": "bool"
        }
      ],
      "payable": false,
      "stateMutability": "view",
      "type": "function"
    },
    {
      "constant": true,
      "inputs": [
        {
          "internalType": "address",
          "name": "_voterAddress",
          "type": "address"
        }
      ],
      "name": "getVotingPower",
      "outputs": [
        {
          "internalType": "uint256",
          "name": "",
          "type": "uint256"
        }
      ],
      "payable": false,
      "stateMutability": "view",
      "type": "function"
    },
    {
      "constant": true,
      "inputs": [
        {
          "internalType": "address",
          "name": "_address",
          "type": "address"
        }
      ],
      "name": "isAdministrator",
      "outputs": [
        {
          "internalType": "bool",
          "name": "",
          "type": "bool"
        }
      ],
      "payable": false,
      "stateMutability": "view",
      "type": "function"
    },
    {
      "constant": true,
      "inputs": [],
      "name": "getWorkflowStatus",
      "outputs": [
        {
          "internalType": "enum Election.WorkflowStatus",
          "name": "",
          "type": "uint8"
        }
      ],
      "payable": false,
      "stateMutability": "view",
      "type": "function"
    },
    {
      "constant": false,
      "inputs": [
        {
          "internalType": "address",
          "name": "_voterAddress",
          "type": "address"
        },
        {
          "internalType": "uint256",
          "name": "_voterPower",
          "type": "uint256"
        }
      ],
      "name": "registerVoter",
      "outputs": [],
      "payable": false,
      "stateMutability": "nonpayable",
      "type": "function"
    },
    {
      "constant": false,
      "inputs": [
        {
          "internalType": "string",
          "name": "_name",
          "type": "string"
        },
        {
          "internalType": "uint256",
          "name": "_cost",
          "type": "uint256"
        }
      ],
      "name": "addCandidate",
      "outputs": [],
      "payable": false,
      "stateMutability": "nonpayable",
      "type": "function"
    },
    {
      "constant": false,
      "inputs": [],
      "name": "startVotingSession",
      "outputs": [],
      "payable": false,
      "stateMutability": "nonpayable",
      "type": "function"
    },
    {
      "constant": false,
      "inputs": [
        {
          "internalType": "uint256",
          "name": "_candidateId",
          "type": "uint256"
        }
      ],
      "name": "vote",
      "outputs": [],
      "payable": false,
      "stateMutability": "nonpayable",
      "type": "function"
    },
    {
      "constant": false,
      "inputs": [],
      "name": "tallyVotes",
      "outputs": [],
      "payable": false,
      "stateMutability": "nonpayable",
      "type": "function"
    }
  ],
  "bytecode": "0x608060405234801561001057600080fd5b50336000806101000a81548173ffffffffffffffffffffffffffffffffffffffff021916908373ffffffffffffffffffffffffffffffffffffffff16021790555060405180604001604052806103e8815260200160008152506001600082015181600001556020820151816001015590505060008060146101000a81548160ff021916908360028111156100a057fe5b0217905550611cab806100b46000396000f3fe608060405234801561001057600080fd5b50600436106101425760003560e01c8063b02e8431116100b8578063da36cffe1161007c578063da36cffe146105e7578063e23cec7b14610643578063e81e977b14610708578063ee74c67814610726578063f53d0a8e14610730578063f75d64a61461077a57610142565b8063b02e8431146104bc578063b60d4288146104fe578063bb4d443614610523578063cbea81ef1461057b578063d361a22f146105c957610142565b80633477ee2e1161010a5780633477ee2e146102b4578063378a21781461037057806337d05ddc1461037a57806341b1b046146103fd578063a1edffa21461041b578063a3ec138d1461044757610142565b80630121b93f146101475780630a2eb301146101755780631af86909146101d1578063229acb17146101ef5780632d35a8a214610296575b600080fd5b6101736004803603602081101561015d57600080fd5b81019080803590602001909291905050506107a6565b005b6101b76004803603602081101561018b57600080fd5b81019080803573ffffffffffffffffffffffffffffffffffffffff169060200190929190505050610adf565b604051808215151515815260200191505060405180910390f35b6101d9610b38565b6040518082815260200191505060405180910390f35b61021b6004803603602081101561020557600080fd5b8101908080359060200190929190505050610bd5565b6040518080602001828103825283818151815260200191508051906020019080838360005b8381101561025b578082015181840152602081019050610240565b50505050905090810190601f1680156102885780820380516001836020036101000a031916815260200191505b509250505060405180910390f35b61029e610c8d565b6040518082815260200191505060405180910390f35b6102e0600480360360208110156102ca57600080fd5b8101908080359060200190929190505050610c93565b6040518085815260200180602001848152602001838152602001828103825285818151815260200191508051906020019080838360005b83811015610332578082015181840152602081019050610317565b50505050905090810190601f16801561035f5780820380516001836020036101000a031916815260200191505b509550505050505060405180910390f35b610378610d5b565b005b610382610ffe565b6040518080602001828103825283818151815260200191508051906020019080838360005b838110156103c25780820151818401526020810190506103a7565b50505050905090810190601f1680156103ef5780820380516001836020036101000a031916815260200191505b509250505060405180910390f35b610405611133565b6040518082815260200191505060405180910390f35b61042361113d565b6040518082600281111561043357fe5b60ff16815260200191505060405180910390f35b6104896004803603602081101561045d57600080fd5b81019080803573ffffffffffffffffffffffffffffffffffffffff169060200190929190505050611150565b60405180851515151581526020018415151515815260200183815260200182815260200194505050505060405180910390f35b6104e8600480360360208110156104d257600080fd5b810190808035906020019092919050505061119a565b6040518082815260200191505060405180910390f35b6105066111ba565b604051808381526020018281526020019250505060405180910390f35b6105656004803603602081101561053957600080fd5b81019080803573ffffffffffffffffffffffffffffffffffffffff1690602001909291905050506111cc565b6040518082815260200191505060405180910390f35b6105c76004803603604081101561059157600080fd5b81019080803573ffffffffffffffffffffffffffffffffffffffff16906020019092919080359060200190929190505050611218565b005b6105d16115aa565b6040518082815260200191505060405180910390f35b610629600480360360208110156105fd57600080fd5b81019080803573ffffffffffffffffffffffffffffffffffffffff169060200190929190505050611647565b604051808215151515815260200191505060405180910390f35b6107066004803603604081101561065957600080fd5b810190808035906020019064010000000081111561067657600080fd5b82018360208201111561068857600080fd5b803590602001918460018302840111640100000000831117156106aa57600080fd5b91908080601f016020809104026020016040519081016040528093929190818152602001838380828437600081840152601f19601f820116905080830192505050505050509192919290803590602001909291905050506116a0565b005b61071061180b565b6040518082815260200191505060405180910390f35b61072e611892565b005b610738611a71565b604051808273ffffffffffffffffffffffffffffffffffffffff1673ffffffffffffffffffffffffffffffffffffffff16815260200191505060405180910390f35b610782611a96565b6040518082600281111561079257fe5b60ff16815260200191505060405180910390f35b600360003373ffffffffffffffffffffffffffffffffffffffff1673ffffffffffffffffffffffffffffffffffffffff16815260200190815260200160002060000160009054906101000a900460ff1661084b576040517f08c379a0000000000000000000000000000000000000000000000000000000008152600401808060200182810382526036815260200180611c0b6036913960400191505060405180910390fd5b6001600281111561085857fe5b600060149054906101000a900460ff16600281111561087357fe5b146108c9576040517f08c379a0000000000000000000000000000000000000000000000000000000008152600401808060200182810382526040815260200180611b526040913960400191505060405180910390fd5b600360003373ffffffffffffffffffffffffffffffffffffffff1673ffffffffffffffffffffffffffffffffffffffff16815260200190815260200160002060000160019054906101000a900460ff161561098c576040517f08c379a000000000000000000000000000000000000000000000000000000000815260040180806020018281038252601c8152602001807f7468652063616c6c65722068617320616c726561647920766f7465640000000081525060200191505060405180910390fd5b60008111801561099e57506005548111155b6109a757600080fd5b6001600360003373ffffffffffffffffffffffffffffffffffffffff1673ffffffffffffffffffffffffffffffffffffffff16815260200190815260200160002060000160016101000a81548160ff02191690831515021790555080600360003373ffffffffffffffffffffffffffffffffffffffff1673ffffffffffffffffffffffffffffffffffffffff16815260200190815260200160002060010181905550600360003373ffffffffffffffffffffffffffffffffffffffff1673ffffffffffffffffffffffffffffffffffffffff168152602001908152602001600020600201546004600083815260200190815260200160002060030160008282540192505081905550807ffff3c900d938d21d0990d786e819f29b8d05c1ef587b462b939609625b684b1660405160405180910390a250565b60008060009054906101000a900473ffffffffffffffffffffffffffffffffffffffff1673ffffffffffffffffffffffffffffffffffffffff168273ffffffffffffffffffffffffffffffffffffffff16149050919050565b6000600280811115610b4657fe5b600060149054906101000a900460ff166002811115610b6157fe5b14610bb7576040517f08c379a000000000000000000000000000000000000000000000000000000000815260040180806020018281038252603e815260200180611b92603e913960400191505060405180910390fd5b60046000600654815260200190815260200160002060030154905090565b6060600460008381526020019081526020016000206001018054600181600116156101000203166002900480601f016020809104026020016040519081016040528092919081815260200182805460018160011615610100020316600290048015610c815780601f10610c5657610100808354040283529160200191610c81565b820191906000526020600020905b815481529060010190602001808311610c6457829003601f168201915b50505050509050919050565b60055481565b6004602052806000526040600020600091509050806000015490806001018054600181600116156101000203166002900480601f016020809104026020016040519081016040528092919081815260200182805460018160011615610100020316600290048015610d455780601f10610d1a57610100808354040283529160200191610d45565b820191906000526020600020905b815481529060010190602001808311610d2857829003601f168201915b5050505050908060020154908060030154905084565b6000809054906101000a900473ffffffffffffffffffffffffffffffffffffffff1673ffffffffffffffffffffffffffffffffffffffff163373ffffffffffffffffffffffffffffffffffffffff1614610e00576040517f08c379a0000000000000000000000000000000000000000000000000000000008152600401808060200182810382526036815260200180611c416036913960400191505060405180910390fd5b60016002811115610e0d57fe5b600060149054906101000a900460ff166002811115610e2857fe5b14610e7e576040517f08c379a0000000000000000000000000000000000000000000000000000000008152600401808060200182810382526040815260200180611b526040913960400191505060405180910390fd5b6000809050600080905060008090505b600160055401811015610ee3578260046000838152602001908152602001600020600301541115610ed657600460008281526020019081526020016000206003015492508091505b8080600101915050610e8e565b50806006819055506002600060146101000a81548160ff02191690836002811115610f0a57fe5b0217905550600460008281526020019081526020016000206002015460018001600082825401925050819055507f86a7e3ed2917a2b5f100160b6e558c8e7ae6e4fb8f2673d860d3f11b4f345e7260405160405180910390a17f9474022b1c97b70d3479aafe8672c447d1837ad99ae1f735eced168a65252d166001600060149054906101000a900460ff1660405180836002811115610fa657fe5b60ff168152602001826002811115610fba57fe5b60ff1681526020019250505060405180910390a17fce05f5bc2de875677f885f088178f7d428d75a451499e2229898032c118a098d60405160405180910390a15050565b606060028081111561100c57fe5b600060149054906101000a900460ff16600281111561102757fe5b1461107d576040517f08c379a000000000000000000000000000000000000000000000000000000000815260040180806020018281038252603e815260200180611b92603e913960400191505060405180910390fd5b6004600060065481526020019081526020016000206001018054600181600116156101000203166002900480601f0160208091040260200160405190810160405280929190818152602001828054600181600116156101000203166002900480156111295780601f106110fe57610100808354040283529160200191611129565b820191906000526020600020905b81548152906001019060200180831161110c57829003601f168201915b5050505050905090565b6000600554905090565b600060149054906101000a900460ff1681565b60036020528060005260406000206000915090508060000160009054906101000a900460ff16908060000160019054906101000a900460ff16908060010154908060020154905084565b600060046000838152602001908152602001600020600201549050919050565b60018060000154908060010154905082565b6000600360008373ffffffffffffffffffffffffffffffffffffffff1673ffffffffffffffffffffffffffffffffffffffff168152602001908152602001600020600201549050919050565b6000809054906101000a900473ffffffffffffffffffffffffffffffffffffffff1673ffffffffffffffffffffffffffffffffffffffff163373ffffffffffffffffffffffffffffffffffffffff16146112bd576040517f08c379a0000000000000000000000000000000000000000000000000000000008152600401808060200182810382526036815260200180611c416036913960400191505060405180910390fd5b600060028111156112ca57fe5b600060149054906101000a900460ff1660028111156112e557fe5b1461133b576040517f08c379a000000000000000000000000000000000000000000000000000000000815260040180806020018281038252603b815260200180611bd0603b913960400191505060405180910390fd5b600360008373ffffffffffffffffffffffffffffffffffffffff1673ffffffffffffffffffffffffffffffffffffffff16815260200190815260200160002060000160009054906101000a900460ff16156113fe576040517f08c379a00000000000000000000000000000000000000000000000000000000081526004018080602001828103825260208152602001807f74686520766f74657220697320616c726561647920726567697374657265642181525060200191505060405180910390fd5b6001600360008473ffffffffffffffffffffffffffffffffffffffff1673ffffffffffffffffffffffffffffffffffffffff16815260200190815260200160002060000160006101000a81548160ff0219169083151502179055506000600360008473ffffffffffffffffffffffffffffffffffffffff1673ffffffffffffffffffffffffffffffffffffffff16815260200190815260200160002060000160016101000a81548160ff0219169083151502179055506000600360008473ffffffffffffffffffffffffffffffffffffffff1673ffffffffffffffffffffffffffffffffffffffff1681526020019081526020016000206001018190555080600360008473ffffffffffffffffffffffffffffffffffffffff1673ffffffffffffffffffffffffffffffffffffffff168152602001908152602001600020600201819055507f42b360c89ba65a59ac7fec024a7bbb2c21d84b5abe5b5178ba0d7e34653a813082604051808273ffffffffffffffffffffffffffffffffffffffff1673ffffffffffffffffffffffffffffffffffffffff16815260200191505060405180910390a15050565b60006002808111156115b857fe5b600060149054906101000a900460ff1660028111156115d357fe5b14611629576040517f08c379a000000000000000000000000000000000000000000000000000000000815260040180806020018281038252603e815260200180611b92603e913960400191505060405180910390fd5b60046000600654815260200190815260200160002060020154905090565b6000600360008373ffffffffffffffffffffffffffffffffffffffff1673ffffffffffffffffffffffffffffffffffffffff16815260200190815260200160002060000160009054906101000a900460ff169050919050565b6000809054906101000a900473ffffffffffffffffffffffffffffffffffffffff1673ffffffffffffffffffffffffffffffffffffffff163373ffffffffffffffffffffffffffffffffffffffff1614611745576040517f08c379a0000000000000000000000000000000000000000000000000000000008152600401808060200182810382526036815260200180611c416036913960400191505060405180910390fd5b6005600081548092919060010191905055506040518060800160405280600554815260200183815260200182815260200160008152506004600060055481526020019081526020016000206000820151816000015560208201518160010190805190602001906117b6929190611aac565b5060408201518160020155606082015181600301559050507fdcd2e8cd237900037efa515c36a3caa6812766647c16535dd5fc3c6fd641154c6005546040518082815260200191505060405180910390a15050565b600060028081111561181957fe5b600060149054906101000a900460ff16600281111561183457fe5b1461188a576040517f08c379a000000000000000000000000000000000000000000000000000000000815260040180806020018281038252603e815260200180611b92603e913960400191505060405180910390fd5b600654905090565b6000809054906101000a900473ffffffffffffffffffffffffffffffffffffffff1673ffffffffffffffffffffffffffffffffffffffff163373ffffffffffffffffffffffffffffffffffffffff1614611937576040517f08c379a0000000000000000000000000000000000000000000000000000000008152600401808060200182810382526036815260200180611c416036913960400191505060405180910390fd5b6000600281111561194457fe5b600060149054906101000a900460ff16600281111561195f57fe5b146119b5576040517f08c379a000000000000000000000000000000000000000000000000000000000815260040180806020018281038252603b815260200180611bd0603b913960400191505060405180910390fd5b6001600060146101000a81548160ff021916908360028111156119d457fe5b02179055507ffca8377aff3a08252b769c58e6769a534922eabaaf9952691ea9cfcaed41fbd860405160405180910390a17f9474022b1c97b70d3479aafe8672c447d1837ad99ae1f735eced168a65252d1660008060149054906101000a900460ff1660405180836002811115611a4757fe5b60ff168152602001826002811115611a5b57fe5b60ff1681526020019250505060405180910390a1565b6000809054906101000a900473ffffffffffffffffffffffffffffffffffffffff1681565b60008060149054906101000a900460ff16905090565b828054600181600116156101000203166002900490600052602060002090601f016020900481019282601f10611aed57805160ff1916838001178555611b1b565b82800160010185558215611b1b579182015b82811115611b1a578251825591602001919060010190611aff565b5b509050611b289190611b2c565b5090565b611b4e91905b80821115611b4a576000816000905550600101611b32565b5090565b9056fe546869732066756e6374696f6e2063616e2062652063616c6c6564206f6e6c79207768656e20766f74696e672073657373696f6e206861732073746172746564546869732066756e6374696f6e2063616e2062652063616c6c6564206f6e6c79207768656e20766f74696e672073657373696f6e2068617320656e646564546869732066756e6374696f6e2063616e2062652063616c6c6564206f6e6c7920647572696e6720766f7465727320726567697374726174696f6e5468652063616c6c6572206f6620746869732066756e6374696f6e206d7573742062652061207265676973746572656420766f7465725468652063616c6c6572206f6620746869732066756e6374696f6e206d757374206265207468652061646d696e6973747261746f7221a265627a7a7231582075089ade1f3413253c070cc62209702062a15b4c6ee04d01a8e70dc533189e6564736f6c63430005100032",
  "source": "pragma solidity 0.5.16;\n\ncontract Election {\n    // Model a candidate\n    struct Candidate {\n        uint id;\n        string name;\n        uint cost;\n        uint voteCount;\n    }\n\n    struct Voter {\n        bool isRegistered;\n        bool hasVoted;\n        uint votedProposalId;\n        uint votingPower;\n    }\n    \n    enum WorkflowStatus {\n        RegisteringVoters,\n        VotingSessionStarted,\n        VotingSessionEnded\n    }\n\n    struct Fund {\n        uint crowdfundedInitialFund;\n        uint crowdfundedUsedFund;\n    }\n\n    address public administrator;\n\n    WorkflowStatus public workflowStatus;\n\n    // Store Crowdfunded Fund\n    Fund public fund;\n\n    // Store accounts that have voted\n    mapping(address => Voter) public voters;\n    // Store candidates\n    // Fetch candidate\n    mapping(uint => Candidate) public candidates;\n    // Store candidates count\n    uint public candidatesCount;\n    // Store winning candidate's ID\n    uint private winningCandidateId;\n\n    // voted event\n    event votedEvent (\n        uint indexed _candidateId\n    );\n\n    event VoterRegisteredEvent (address voterAddress);\n    event ProposalRegisteredEvent (\n        uint proposalId\n    );\n    event VotingSessionStartedEvent ();\n    event VotingSessionEndedEvent ();\n\n    event WorkflowStatusChangeEvent (\n        WorkflowStatus previousStatus,\n        WorkflowStatus newStatus\n    );\n\n    event NetFundChangeEvent ();\n\n    // ----------------- MODIFIERS -----------------\n    modifier onlyAdministrator() {\n        require(msg.sender == administrator, \"The caller of this function must be the administrator!\");\n        _;\n    }\n    modifier onlyRegisteredVoter() {\n        require(voters[msg.sender].isRegistered, \"The caller of this function must be a registered voter\");\n        _;\n    }\n    modifier onlyDuringVotersRegistration() {\n        require(workflowStatus == WorkflowStatus.RegisteringVoters, \"This function can be called only during voters registration\");\n        _;\n    }\n\n    modifier onlyDuringVotingSession() {\n        require(workflowStatus == WorkflowStatus.VotingSessionStarted, \"This function can be called only when voting session has started\");\n        _;\n    }\n    modifier onlyAfterVotingSession() {\n        require(workflowStatus == WorkflowStatus.VotingSessionEnded, \"This function can be called only when voting session has ended\");\n        _;\n    }\n    \n    // ----------------- VIEWS (HELPER FUNCTIONS) -----------------\n    function getProposalsNumber() public view returns (uint) {\n        return candidatesCount;\n    }\n\n    function getProposalDescription(uint index) public view returns (string memory) {\n        return candidates[index].name;\n    }\n\n    function getProposalCost(uint index) public view returns (uint) {\n        return candidates[index].cost;\n    }\n\n    function getWinningProposalId() \n        public onlyAfterVotingSession view returns (uint) {\n        return winningCandidateId;\n    }\n\n    function getWinningProposalDescription()\n        public onlyAfterVotingSession view returns (string memory) {\n        return candidates[winningCandidateId].name;    \n    }\n\n    function getWinningProposalCost() public onlyAfterVotingSession view returns (uint) {\n        return candidates[winningCandidateId].cost;\n    }\n\n    function getWinningProposalVoteCounts()\n        public onlyAfterVotingSession view returns (uint) {\n        return candidates[winningCandidateId].voteCount;\n    }\n\n    function isRegisteredVoter(address _voterAddress) public view returns (bool) {\n        return voters[_voterAddress].isRegistered;\n    }\n\n    function getVotingPower(address _voterAddress) public view returns (uint) {\n        return voters[_voterAddress].votingPower;\n    }\n\n    function isAdministrator(address _address) public view returns (bool) {\n        return (_address == administrator);\n    }\n\n    function getWorkflowStatus() public view returns (WorkflowStatus) {\n        return workflowStatus;\n    }\n\n    // ----------------- Constructor -----------------\n    constructor() public {\n        administrator = msg.sender;\n        // crowdfundedInitialFund = 1000;\n        fund = Fund(1000,0);\n        workflowStatus = WorkflowStatus.RegisteringVoters;\n    }\n\n    function registerVoter(address _voterAddress, uint _voterPower) public onlyAdministrator onlyDuringVotersRegistration {\n        require(!voters[_voterAddress].isRegistered, \"the voter is already registered!\");\n\n        voters[_voterAddress].isRegistered = true;\n        voters[_voterAddress].hasVoted = false;\n        voters[_voterAddress].votedProposalId = 0;\n        voters[_voterAddress].votingPower = _voterPower;\n        \n        emit VoterRegisteredEvent(_voterAddress);\n    }\n\n    function addCandidate (string memory _name, uint _cost) public onlyAdministrator {\n        candidatesCount ++;\n        candidates[candidatesCount] = Candidate(candidatesCount, _name, _cost, 0); // initialize new Candidate struct \n        emit ProposalRegisteredEvent(candidatesCount);\n    }\n\n    function startVotingSession() public onlyAdministrator onlyDuringVotersRegistration {\n        workflowStatus = WorkflowStatus.VotingSessionStarted;\n        emit VotingSessionStartedEvent();\n        emit WorkflowStatusChangeEvent(WorkflowStatus.RegisteringVoters, workflowStatus);\n    } \n    \n    function vote(uint _candidateId) public onlyRegisteredVoter onlyDuringVotingSession {\n        require(!voters[msg.sender].hasVoted, \"the caller has already voted\"); // make sure voter's boolean for hasVoted is false\n\n        require(_candidateId > 0 && _candidateId <= candidatesCount);\n\n        voters[msg.sender].hasVoted = true;\n        voters[msg.sender].votedProposalId = _candidateId;\n\n        candidates[_candidateId].voteCount += voters[msg.sender].votingPower;\n\n        emit votedEvent(_candidateId);\n    }\n\n    function tallyVotes() public onlyAdministrator onlyDuringVotingSession {\n        uint winningVoteCount = 0;\n        uint winningProposalIndex = 0;\n        for (uint i = 0; i < candidatesCount + 1; i++) {\n            if (candidates[i].voteCount > winningVoteCount) {\n                winningVoteCount = candidates[i].voteCount;\n                winningProposalIndex = i;\n            }\n        }\n        winningCandidateId = winningProposalIndex;\n        workflowStatus = WorkflowStatus.VotingSessionEnded;\n\n        fund.crowdfundedUsedFund += candidates[winningProposalIndex].cost;\n\n        emit VotingSessionEndedEvent();\n        emit WorkflowStatusChangeEvent(WorkflowStatus.VotingSessionStarted, workflowStatus);\n        emit NetFundChangeEvent();\n    }\n}",
  "sourcePath": "/Users/nankamonporn/Desktop/voting-eco416/contracts/Election.sol",
  "compiler": {
    "name": "solc",
    "version": "0.5.16+commit.9c3226ce.Emscripten.clang"
  },
  "schemaVersion": "3.4.3",
  "updatedAt": "2021-11-26T02:57:30.058Z",
  "networkType": "ethereum",
  "devdoc": {
    "methods": {}
  },
  "userdoc": {
    "methods": {}
  }
}