{
  "contractName": "Election",
  "abi": [
    {
      "inputs": [],
      "payable": false,
      "stateMutability": "nonpayable",
      "type": "constructor"
    },
    {
      "anonymous": false,
      "inputs": [
        {
          "indexed": false,
          "internalType": "uint256",
          "name": "proposalId",
          "type": "uint256"
        }
      ],
      "name": "ProposalRegisteredEvent",
      "type": "event"
    },
    {
      "anonymous": false,
      "inputs": [],
      "name": "ProposalsRegistrationEndedEvent",
      "type": "event"
    },
    {
      "anonymous": false,
      "inputs": [],
      "name": "ProposalsRegistrationStartedEvent",
      "type": "event"
    },
    {
      "anonymous": false,
      "inputs": [
        {
          "indexed": false,
          "internalType": "address",
          "name": "voterAddress",
          "type": "address"
        }
      ],
      "name": "VoterRegisteredEvent",
      "type": "event"
    },
    {
      "anonymous": false,
      "inputs": [],
      "name": "VotesTalliedEvent",
      "type": "event"
    },
    {
      "anonymous": false,
      "inputs": [],
      "name": "VotingSessionEndedEvent",
      "type": "event"
    },
    {
      "anonymous": false,
      "inputs": [],
      "name": "VotingSessionStartedEvent",
      "type": "event"
    },
    {
      "anonymous": false,
      "inputs": [
        {
          "indexed": false,
          "internalType": "enum Election.WorkflowStatus",
          "name": "previousStatus",
          "type": "uint8"
        },
        {
          "indexed": false,
          "internalType": "enum Election.WorkflowStatus",
          "name": "newStatus",
          "type": "uint8"
        }
      ],
      "name": "WorkflowStatusChangeEvent",
      "type": "event"
    },
    {
      "anonymous": false,
      "inputs": [
        {
          "indexed": true,
          "internalType": "uint256",
          "name": "_candidateId",
          "type": "uint256"
        }
      ],
      "name": "votedEvent",
      "type": "event"
    },
    {
      "constant": true,
      "inputs": [],
      "name": "administrator",
      "outputs": [
        {
          "internalType": "address",
          "name": "",
          "type": "address"
        }
      ],
      "payable": false,
      "stateMutability": "view",
      "type": "function"
    },
    {
      "constant": true,
      "inputs": [
        {
          "internalType": "uint256",
          "name": "",
          "type": "uint256"
        }
      ],
      "name": "candidates",
      "outputs": [
        {
          "internalType": "uint256",
          "name": "id",
          "type": "uint256"
        },
        {
          "internalType": "string",
          "name": "name",
          "type": "string"
        },
        {
          "internalType": "uint256",
          "name": "voteCount",
          "type": "uint256"
        }
      ],
      "payable": false,
      "stateMutability": "view",
      "type": "function"
    },
    {
      "constant": true,
      "inputs": [],
      "name": "candidatesCount",
      "outputs": [
        {
          "internalType": "uint256",
          "name": "",
          "type": "uint256"
        }
      ],
      "payable": false,
      "stateMutability": "view",
      "type": "function"
    },
    {
      "constant": true,
      "inputs": [
        {
          "internalType": "address",
          "name": "",
          "type": "address"
        }
      ],
      "name": "voters",
      "outputs": [
        {
          "internalType": "bool",
          "name": "isRegistered",
          "type": "bool"
        },
        {
          "internalType": "bool",
          "name": "hasVoted",
          "type": "bool"
        },
        {
          "internalType": "uint256",
          "name": "votedProposalId",
          "type": "uint256"
        }
      ],
      "payable": false,
      "stateMutability": "view",
      "type": "function"
    },
    {
      "constant": true,
      "inputs": [],
      "name": "workflowStatus",
      "outputs": [
        {
          "internalType": "enum Election.WorkflowStatus",
          "name": "",
          "type": "uint8"
        }
      ],
      "payable": false,
      "stateMutability": "view",
      "type": "function"
    },
    {
      "constant": true,
      "inputs": [],
      "name": "getProposalsNumber",
      "outputs": [
        {
          "internalType": "uint256",
          "name": "",
          "type": "uint256"
        }
      ],
      "payable": false,
      "stateMutability": "view",
      "type": "function"
    },
    {
      "constant": true,
      "inputs": [
        {
          "internalType": "uint256",
          "name": "index",
          "type": "uint256"
        }
      ],
      "name": "getProposalDescription",
      "outputs": [
        {
          "internalType": "string",
          "name": "",
          "type": "string"
        }
      ],
      "payable": false,
      "stateMutability": "view",
      "type": "function"
    },
    {
      "constant": true,
      "inputs": [],
      "name": "getWinningProposalId",
      "outputs": [
        {
          "internalType": "uint256",
          "name": "",
          "type": "uint256"
        }
      ],
      "payable": false,
      "stateMutability": "view",
      "type": "function"
    },
    {
      "constant": true,
      "inputs": [],
      "name": "getWinningProposalDescription",
      "outputs": [
        {
          "internalType": "string",
          "name": "",
          "type": "string"
        }
      ],
      "payable": false,
      "stateMutability": "view",
      "type": "function"
    },
    {
      "constant": true,
      "inputs": [],
      "name": "getWinningProposalVoteCounts",
      "outputs": [
        {
          "internalType": "uint256",
          "name": "",
          "type": "uint256"
        }
      ],
      "payable": false,
      "stateMutability": "view",
      "type": "function"
    },
    {
      "constant": true,
      "inputs": [
        {
          "internalType": "address",
          "name": "_voterAddress",
          "type": "address"
        }
      ],
      "name": "isRegisteredVoter",
      "outputs": [
        {
          "internalType": "bool",
          "name": "",
          "type": "bool"
        }
      ],
      "payable": false,
      "stateMutability": "view",
      "type": "function"
    },
    {
      "constant": true,
      "inputs": [
        {
          "internalType": "address",
          "name": "_address",
          "type": "address"
        }
      ],
      "name": "isAdministrator",
      "outputs": [
        {
          "internalType": "bool",
          "name": "",
          "type": "bool"
        }
      ],
      "payable": false,
      "stateMutability": "view",
      "type": "function"
    },
    {
      "constant": true,
      "inputs": [],
      "name": "getWorkflowStatus",
      "outputs": [
        {
          "internalType": "enum Election.WorkflowStatus",
          "name": "",
          "type": "uint8"
        }
      ],
      "payable": false,
      "stateMutability": "view",
      "type": "function"
    },
    {
      "constant": false,
      "inputs": [
        {
          "internalType": "address",
          "name": "_voterAddress",
          "type": "address"
        }
      ],
      "name": "registerVoter",
      "outputs": [],
      "payable": false,
      "stateMutability": "nonpayable",
      "type": "function"
    },
    {
      "constant": false,
      "inputs": [],
      "name": "startProposalsRegistration",
      "outputs": [],
      "payable": false,
      "stateMutability": "nonpayable",
      "type": "function"
    },
    {
      "constant": false,
      "inputs": [],
      "name": "endProposalsRegistration",
      "outputs": [],
      "payable": false,
      "stateMutability": "nonpayable",
      "type": "function"
    },
    {
      "constant": false,
      "inputs": [
        {
          "internalType": "string",
          "name": "_name",
          "type": "string"
        }
      ],
      "name": "addCandidate",
      "outputs": [],
      "payable": false,
      "stateMutability": "nonpayable",
      "type": "function"
    },
    {
      "constant": false,
      "inputs": [
        {
          "internalType": "uint256",
          "name": "_candidateId",
          "type": "uint256"
        }
      ],
      "name": "vote",
      "outputs": [],
      "payable": false,
      "stateMutability": "nonpayable",
      "type": "function"
    },
    {
      "constant": false,
      "inputs": [],
      "name": "tallyVotes",
      "outputs": [],
      "payable": false,
      "stateMutability": "nonpayable",
      "type": "function"
    }
  ],
  "bytecode": "0x608060405234801561001057600080fd5b50336000806101000a81548173ffffffffffffffffffffffffffffffffffffffff021916908373ffffffffffffffffffffffffffffffffffffffff16021790555060008060146101000a81548160ff0219169083600581111561006f57fe5b0217905550611b6a806100836000396000f3fe608060405234801561001057600080fd5b50600436106101215760003560e01c806341b1b046116100ad578063da36cffe11610071578063da36cffe14610596578063e09b8c79146105f2578063e81e977b146105fc578063f53d0a8e1461061a578063f75d64a61461066457610121565b806341b1b04614610419578063462e91ec146104375780636c297445146104f2578063a1edffa2146104fc578063a3ec138d1461052857610121565b80632d35a8a2116100f45780632d35a8a2146102755780633477ee2e14610293578063378a21781461034857806337d05ddc1461035257806338db6dd3146103d557610121565b80630121b93f146101265780630a2eb301146101545780631af86909146101b0578063229acb17146101ce575b600080fd5b6101526004803603602081101561013c57600080fd5b8101908080359060200190929190505050610690565b005b6101966004803603602081101561016a57600080fd5b81019080803573ffffffffffffffffffffffffffffffffffffffff16906020019092919050505061090a565b604051808215151515815260200191505060405180910390f35b6101b8610963565b6040518082815260200191505060405180910390f35b6101fa600480360360208110156101e457600080fd5b8101908080359060200190929190505050610a00565b6040518080602001828103825283818151815260200191508051906020019080838360005b8381101561023a57808201518184015260208101905061021f565b50505050905090810190601f1680156102675780820380516001836020036101000a031916815260200191505b509250505060405180910390f35b61027d610ab8565b6040518082815260200191505060405180910390f35b6102bf600480360360208110156102a957600080fd5b8101908080359060200190929190505050610abe565b6040518084815260200180602001838152602001828103825284818151815260200191508051906020019080838360005b8381101561030b5780820151818401526020810190506102f0565b50505050905090810190601f1680156103385780820380516001836020036101000a031916815260200191505b5094505050505060405180910390f35b610350610b80565b005b61035a610dcc565b6040518080602001828103825283818151815260200191508051906020019080838360005b8381101561039a57808201518184015260208101905061037f565b50505050905090810190601f1680156103c75780820380516001836020036101000a031916815260200191505b509250505060405180910390f35b610417600480360360208110156103eb57600080fd5b81019080803573ffffffffffffffffffffffffffffffffffffffff169060200190929190505050610f01565b005b61042161124a565b6040518082815260200191505060405180910390f35b6104f06004803603602081101561044d57600080fd5b810190808035906020019064010000000081111561046a57600080fd5b82018360208201111561047c57600080fd5b8035906020019184600183028401116401000000008311171561049e57600080fd5b91908080601f016020809104026020016040519081016040528093929190818152602001838380828437600081840152601f19601f820116905080830192505050505050509192919290505050611254565b005b6104fa6113ae565b005b61050461158e565b6040518082600581111561051457fe5b60ff16815260200191505060405180910390f35b61056a6004803603602081101561053e57600080fd5b81019080803573ffffffffffffffffffffffffffffffffffffffff1690602001909291905050506115a1565b604051808415151515815260200183151515158152602001828152602001935050505060405180910390f35b6105d8600480360360208110156105ac57600080fd5b81019080803573ffffffffffffffffffffffffffffffffffffffff1690602001909291905050506115e5565b604051808215151515815260200191505060405180910390f35b6105fa61163e565b005b61060461181d565b6040518082815260200191505060405180910390f35b6106226118a4565b604051808273ffffffffffffffffffffffffffffffffffffffff1673ffffffffffffffffffffffffffffffffffffffff16815260200191505060405180910390f35b61066c6118c9565b6040518082600581111561067c57fe5b60ff16815260200191505060405180910390f35b600160003373ffffffffffffffffffffffffffffffffffffffff1673ffffffffffffffffffffffffffffffffffffffff16815260200190815260200160002060000160009054906101000a900460ff16610735576040517f08c379a0000000000000000000000000000000000000000000000000000000008152600401808060200182810382526036815260200180611aca6036913960400191505060405180910390fd5b600160003373ffffffffffffffffffffffffffffffffffffffff1673ffffffffffffffffffffffffffffffffffffffff16815260200190815260200160002060000160019054906101000a900460ff16156107f8576040517f08c379a000000000000000000000000000000000000000000000000000000000815260040180806020018281038252601c8152602001807f7468652063616c6c65722068617320616c726561647920766f7465640000000081525060200191505060405180910390fd5b60008111801561080a57506003548111155b61081357600080fd5b60018060003373ffffffffffffffffffffffffffffffffffffffff1673ffffffffffffffffffffffffffffffffffffffff16815260200190815260200160002060000160016101000a81548160ff02191690831515021790555080600160003373ffffffffffffffffffffffffffffffffffffffff1673ffffffffffffffffffffffffffffffffffffffff168152602001908152602001600020600101819055506002600082815260200190815260200160002060020160008154809291906001019190505550807ffff3c900d938d21d0990d786e819f29b8d05c1ef587b462b939609625b684b1660405160405180910390a250565b60008060009054906101000a900473ffffffffffffffffffffffffffffffffffffffff1673ffffffffffffffffffffffffffffffffffffffff168273ffffffffffffffffffffffffffffffffffffffff16149050919050565b600060058081111561097157fe5b600060149054906101000a900460ff16600581111561098c57fe5b146109e2576040517f08c379a000000000000000000000000000000000000000000000000000000000815260040180806020018281038252603e815260200180611985603e913960400191505060405180910390fd5b60026000600454815260200190815260200160002060020154905090565b6060600260008381526020019081526020016000206001018054600181600116156101000203166002900480601f016020809104026020016040519081016040528092919081815260200182805460018160011615610100020316600290048015610aac5780601f10610a8157610100808354040283529160200191610aac565b820191906000526020600020905b815481529060010190602001808311610a8f57829003601f168201915b50505050509050919050565b60035481565b6002602052806000526040600020600091509050806000015490806001018054600181600116156101000203166002900480601f016020809104026020016040519081016040528092919081815260200182805460018160011615610100020316600290048015610b705780601f10610b4557610100808354040283529160200191610b70565b820191906000526020600020905b815481529060010190602001808311610b5357829003601f168201915b5050505050908060020154905083565b6000809054906101000a900473ffffffffffffffffffffffffffffffffffffffff1673ffffffffffffffffffffffffffffffffffffffff163373ffffffffffffffffffffffffffffffffffffffff1614610c25576040517f08c379a0000000000000000000000000000000000000000000000000000000008152600401808060200182810382526036815260200180611b006036913960400191505060405180910390fd5b60046005811115610c3257fe5b600060149054906101000a900460ff166005811115610c4d57fe5b14610ca3576040517f08c379a000000000000000000000000000000000000000000000000000000000815260040180806020018281038252603e815260200180611a0b603e913960400191505060405180910390fd5b6000809050600080905060008090505b600354811015610d05578260026000838152602001908152602001600020600201541115610cf857600260008281526020019081526020016000206002015492508091505b8080600101915050610cb3565b50806004819055506005600060146101000a81548160ff02191690836005811115610d2c57fe5b02179055507fa1f82a14ea162408785ef8969f7cf08b2bb72b081f8d4e2eda49846e52f439c660405160405180910390a17f9474022b1c97b70d3479aafe8672c447d1837ad99ae1f735eced168a65252d166004600060149054906101000a900460ff1660405180836005811115610da057fe5b60ff168152602001826005811115610db457fe5b60ff1681526020019250505060405180910390a15050565b6060600580811115610dda57fe5b600060149054906101000a900460ff166005811115610df557fe5b14610e4b576040517f08c379a000000000000000000000000000000000000000000000000000000000815260040180806020018281038252603e815260200180611985603e913960400191505060405180910390fd5b6002600060045481526020019081526020016000206001018054600181600116156101000203166002900480601f016020809104026020016040519081016040528092919081815260200182805460018160011615610100020316600290048015610ef75780601f10610ecc57610100808354040283529160200191610ef7565b820191906000526020600020905b815481529060010190602001808311610eda57829003601f168201915b5050505050905090565b6000809054906101000a900473ffffffffffffffffffffffffffffffffffffffff1673ffffffffffffffffffffffffffffffffffffffff163373ffffffffffffffffffffffffffffffffffffffff1614610fa6576040517f08c379a0000000000000000000000000000000000000000000000000000000008152600401808060200182810382526036815260200180611b006036913960400191505060405180910390fd5b60006005811115610fb357fe5b600060149054906101000a900460ff166005811115610fce57fe5b14611024576040517f08c379a000000000000000000000000000000000000000000000000000000000815260040180806020018281038252603b815260200180611a8f603b913960400191505060405180910390fd5b600160008273ffffffffffffffffffffffffffffffffffffffff1673ffffffffffffffffffffffffffffffffffffffff16815260200190815260200160002060000160009054906101000a900460ff16156110e7576040517f08c379a00000000000000000000000000000000000000000000000000000000081526004018080602001828103825260208152602001807f74686520766f74657220697320616c726561647920726567697374657265642181525060200191505060405180910390fd5b60018060008373ffffffffffffffffffffffffffffffffffffffff1673ffffffffffffffffffffffffffffffffffffffff16815260200190815260200160002060000160006101000a81548160ff0219169083151502179055506000600160008373ffffffffffffffffffffffffffffffffffffffff1673ffffffffffffffffffffffffffffffffffffffff16815260200190815260200160002060000160016101000a81548160ff0219169083151502179055506000600160008373ffffffffffffffffffffffffffffffffffffffff1673ffffffffffffffffffffffffffffffffffffffff168152602001908152602001600020600101819055507f42b360c89ba65a59ac7fec024a7bbb2c21d84b5abe5b5178ba0d7e34653a813081604051808273ffffffffffffffffffffffffffffffffffffffff1673ffffffffffffffffffffffffffffffffffffffff16815260200191505060405180910390a150565b6000600354905090565b6000809054906101000a900473ffffffffffffffffffffffffffffffffffffffff1673ffffffffffffffffffffffffffffffffffffffff163373ffffffffffffffffffffffffffffffffffffffff16146112f9576040517f08c379a0000000000000000000000000000000000000000000000000000000008152600401808060200182810382526036815260200180611b006036913960400191505060405180910390fd5b6003600081548092919060010191905055506040518060600160405280600354815260200182815260200160008152506002600060035481526020019081526020016000206000820151816000015560208201518160010190805190602001906113649291906118df565b50604082015181600201559050507fdcd2e8cd237900037efa515c36a3caa6812766647c16535dd5fc3c6fd641154c6003546040518082815260200191505060405180910390a150565b6000809054906101000a900473ffffffffffffffffffffffffffffffffffffffff1673ffffffffffffffffffffffffffffffffffffffff163373ffffffffffffffffffffffffffffffffffffffff1614611453576040517f08c379a0000000000000000000000000000000000000000000000000000000008152600401808060200182810382526036815260200180611b006036913960400191505060405180910390fd5b6002600581111561146057fe5b600060149054906101000a900460ff16600581111561147b57fe5b146114d1576040517f08c379a0000000000000000000000000000000000000000000000000000000008152600401808060200182810382526046815260200180611a496046913960600191505060405180910390fd5b6002600060146101000a81548160ff021916908360058111156114f057fe5b02179055507ff629233eb3546085ffcbbb79c947a38b98b14a6915bcc004a0c1a34ae38c29d860405160405180910390a17f9474022b1c97b70d3479aafe8672c447d1837ad99ae1f735eced168a65252d166001600060149054906101000a900460ff166040518083600581111561156457fe5b60ff16815260200182600581111561157857fe5b60ff1681526020019250505060405180910390a1565b600060149054906101000a900460ff1681565b60016020528060005260406000206000915090508060000160009054906101000a900460ff16908060000160019054906101000a900460ff16908060010154905083565b6000600160008373ffffffffffffffffffffffffffffffffffffffff1673ffffffffffffffffffffffffffffffffffffffff16815260200190815260200160002060000160009054906101000a900460ff169050919050565b6000809054906101000a900473ffffffffffffffffffffffffffffffffffffffff1673ffffffffffffffffffffffffffffffffffffffff163373ffffffffffffffffffffffffffffffffffffffff16146116e3576040517f08c379a0000000000000000000000000000000000000000000000000000000008152600401808060200182810382526036815260200180611b006036913960400191505060405180910390fd5b600160058111156116f057fe5b600060149054906101000a900460ff16600581111561170b57fe5b14611761576040517f08c379a00000000000000000000000000000000000000000000000000000000081526004018080602001828103825260488152602001806119c36048913960600191505060405180910390fd5b6001600060146101000a81548160ff0219169083600581111561178057fe5b02179055507f65b51a6e225dbda234ac3ca54831842456809aa60205dd84e758670106b4a6f360405160405180910390a17f9474022b1c97b70d3479aafe8672c447d1837ad99ae1f735eced168a65252d1660008060149054906101000a900460ff16604051808360058111156117f357fe5b60ff16815260200182600581111561180757fe5b60ff1681526020019250505060405180910390a1565b600060058081111561182b57fe5b600060149054906101000a900460ff16600581111561184657fe5b1461189c576040517f08c379a000000000000000000000000000000000000000000000000000000000815260040180806020018281038252603e815260200180611985603e913960400191505060405180910390fd5b600454905090565b6000809054906101000a900473ffffffffffffffffffffffffffffffffffffffff1681565b60008060149054906101000a900460ff16905090565b828054600181600116156101000203166002900490600052602060002090601f016020900481019282601f1061192057805160ff191683800117855561194e565b8280016001018555821561194e579182015b8281111561194d578251825591602001919060010190611932565b5b50905061195b919061195f565b5090565b61198191905b8082111561197d576000816000905550600101611965565b5090565b9056fe546869732066756e6374696f6e2063616e2062652063616c6c6564206f6e6c7920616674657220766f7465732068617665206265656e2074616c6c696564546869732066756e6374696f6e2063616e2062652063616c6c6564206f6e6c79207768656e2070726f706f73616c7320726567697374726174696f6e206861732073746172746564546869732066756e6374696f6e2063616e2062652063616c6c6564206f6e6c79207768656e20766f74696e672073657373696f6e2068617320656e646564546869732066756e6374696f6e2063616e2062652063616c6c6564206f6e6c79207768656e2070726f706f73616c7320726567697374726174696f6e2068617320656e646564546869732066756e6374696f6e2063616e2062652063616c6c6564206f6e6c7920647572696e6720766f7465727320726567697374726174696f6e5468652063616c6c6572206f6620746869732066756e6374696f6e206d7573742062652061207265676973746572656420766f7465725468652063616c6c6572206f6620746869732066756e6374696f6e206d757374206265207468652061646d696e6973747261746f7221a265627a7a7231582034a4700c0af60638dfce06c74333ab92b4db530c9c73a3d3f0c6b1caeb1ac76964736f6c63430005100032",
  "source": "pragma solidity 0.5.16;\n\ncontract Election {\n    // Model a candidate\n    struct Candidate {\n        uint id;\n        string name;\n        uint voteCount;\n    }\n\n    struct Voter {\n        bool isRegistered;\n        bool hasVoted;\n        uint votedProposalId;\n    }\n    \n    enum WorkflowStatus {\n        RegisteringVoters,\n        ProposalsRegistrationStarted,\n        ProposalsRegistrationEnded,\n        VotingSessionStarted,\n        VotingSessionEnded,\n        VotesTallied\n    }\n\n    address public administrator;\n\n    WorkflowStatus public workflowStatus;\n\n    // Store accounts that have voted\n    mapping(address => Voter) public voters;\n    // Store candidates\n    // Fetch candidate\n    mapping(uint => Candidate) public candidates;\n    // Store candidates count\n    uint public candidatesCount;\n    // Store winning candidate's ID\n    uint private winningCandidateId;\n\n    // voted event\n    event votedEvent (\n        uint indexed _candidateId\n    );\n\n    event VoterRegisteredEvent (address voterAddress);\n    event ProposalsRegistrationStartedEvent ();\n    event ProposalsRegistrationEndedEvent ();\n    event ProposalRegisteredEvent (\n        uint proposalId\n    );\n    event VotingSessionStartedEvent ();\n    event VotingSessionEndedEvent ();\n    event VotesTalliedEvent ();\n\n    event WorkflowStatusChangeEvent (\n        WorkflowStatus previousStatus,\n        WorkflowStatus newStatus\n    );\n\n    // ----------------- MODIFIERS -----------------\n    modifier onlyAdministrator() {\n        require(msg.sender == administrator, \"The caller of this function must be the administrator!\");\n        _;\n    }\n    modifier onlyRegisteredVoter() {\n        require(voters[msg.sender].isRegistered, \"The caller of this function must be a registered voter\");\n        _;\n    }\n    modifier onlyDuringVotersRegistration() {\n        require(workflowStatus == WorkflowStatus.RegisteringVoters, \"This function can be called only during voters registration\");\n        _;\n    }\n\n    modifier onlyDuringProposalsRegistration() {\n        require(workflowStatus == WorkflowStatus.ProposalsRegistrationStarted, \"This function can be called only when proposals registration has started\");\n        _;\n    }\n    modifier onlyAfterProposalsRegistration() {\n        require(workflowStatus == WorkflowStatus.ProposalsRegistrationEnded, \"This function can be called only when proposals registration has ended\");\n        _;\n    }\n\n    modifier onlyDuringVotingSession() {\n        require(workflowStatus == WorkflowStatus.VotingSessionStarted, \"This function can be called only when voting session has started\");\n        _;\n    }\n    modifier onlyAfterVotingSession() {\n        require(workflowStatus == WorkflowStatus.VotingSessionEnded, \"This function can be called only when voting session has ended\");\n        _;\n    }\n\n    modifier onlyAfterVotesTallied() {\n        require(workflowStatus == WorkflowStatus.VotesTallied, \"This function can be called only after votes have been tallied\");\n        _;\n    }\n    \n    // ----------------- VIEWS (HELPER FUNCTIONS) -----------------\n    function getProposalsNumber() public view returns (uint) {\n        return candidatesCount;\n    }\n\n    function getProposalDescription(uint index) public view returns (string memory) {\n        return candidates[index].name;\n    }\n\n    function getWinningProposalId() \n        public onlyAfterVotesTallied view returns (uint) {\n        return winningCandidateId;\n    }\n\n    function getWinningProposalDescription()\n        public onlyAfterVotesTallied view returns (string memory) {\n        return candidates[winningCandidateId].name;    \n    }\n\n    function getWinningProposalVoteCounts()\n        public onlyAfterVotesTallied view returns (uint) {\n        return candidates[winningCandidateId].voteCount;\n    }\n\n    function isRegisteredVoter(address _voterAddress) public view returns (bool) {\n        return voters[_voterAddress].isRegistered;\n    }\n\n    function isAdministrator(address _address) public view returns (bool) {\n        return (_address == administrator);\n    }\n\n    function getWorkflowStatus() public view returns (WorkflowStatus) {\n        return workflowStatus;\n    }\n\n    // ----------------- Constructor -----------------\n    constructor() public {\n        administrator = msg.sender;\n        workflowStatus = WorkflowStatus.RegisteringVoters;\n    }\n\n    function registerVoter(address _voterAddress) public onlyAdministrator onlyDuringVotersRegistration {\n        require(!voters[_voterAddress].isRegistered, \"the voter is already registered!\");\n\n        voters[_voterAddress].isRegistered = true;\n        voters[_voterAddress].hasVoted = false;\n        voters[_voterAddress].votedProposalId = 0;\n        \n        emit VoterRegisteredEvent(_voterAddress);\n    }\n\n    function startProposalsRegistration()\n        public onlyAdministrator onlyDuringProposalsRegistration {\n        workflowStatus = WorkflowStatus.ProposalsRegistrationStarted;\n        emit ProposalsRegistrationStartedEvent();\n        emit WorkflowStatusChangeEvent(WorkflowStatus.RegisteringVoters, workflowStatus);\n    }\n\n    function endProposalsRegistration()\n        public onlyAdministrator onlyAfterProposalsRegistration {\n        workflowStatus = WorkflowStatus.ProposalsRegistrationEnded;\n        emit ProposalsRegistrationEndedEvent();\n        emit WorkflowStatusChangeEvent(WorkflowStatus.ProposalsRegistrationStarted, workflowStatus);\n    }\n\n    function addCandidate (string memory _name) \n        public onlyAdministrator {\n        candidatesCount ++;\n        candidates[candidatesCount] = Candidate(candidatesCount, _name, 0); // initialize new Candidate struct \n        emit ProposalRegisteredEvent(candidatesCount);\n    }\n    \n    function vote(uint _candidateId) \n        public onlyRegisteredVoter {\n        require(!voters[msg.sender].hasVoted, \"the caller has already voted\"); // make sure voter's boolean for hasVoted is false\n\n        require(_candidateId > 0 && _candidateId <= candidatesCount);\n\n        voters[msg.sender].hasVoted = true;\n        voters[msg.sender].votedProposalId = _candidateId;\n\n        candidates[_candidateId].voteCount ++;\n\n        emit votedEvent(_candidateId);\n    }\n\n    function tallyVotes()\n        public onlyAdministrator onlyAfterVotingSession {\n        uint winningVoteCount = 0;\n        uint winningProposalIndex = 0;\n        for (uint i = 0; i < candidatesCount; i++) {\n            if (candidates[i].voteCount > winningVoteCount) {\n                winningVoteCount = candidates[i].voteCount;\n                winningProposalIndex = i;\n            }\n        }\n        winningCandidateId = winningProposalIndex;\n        workflowStatus = WorkflowStatus.VotesTallied;\n        emit VotesTalliedEvent();\n        emit WorkflowStatusChangeEvent(WorkflowStatus.VotingSessionEnded, workflowStatus);\n    }\n}",
  "sourcePath": "/Users/AB185512/Desktop/voting/contracts/Election.sol",
  "compiler": {
    "name": "solc",
    "version": "0.5.16+commit.9c3226ce.Emscripten.clang"
  },
  "schemaVersion": "3.4.3",
  "updatedAt": "2021-11-11T21:53:24.746Z",
  "networkType": "ethereum",
  "devdoc": {
    "methods": {}
  },
  "userdoc": {
    "methods": {}
  }
}